{
  "contractName": "Getters",
  "abi": [
    {
      "constant": true,
      "inputs": [],
      "name": "getSigningAddress",
      "outputs": [
        {
          "name": "",
          "type": "address"
        }
      ],
      "payable": false,
      "stateMutability": "view",
      "type": "function"
    },
    {
      "constant": true,
      "inputs": [
        {
          "name": "_worker",
          "type": "address"
        }
      ],
      "name": "getWorker",
      "outputs": [
        {
          "components": [
            {
              "name": "signer",
              "type": "address"
            },
            {
              "name": "status",
              "type": "uint8"
            },
            {
              "name": "report",
              "type": "bytes"
            },
            {
              "name": "balance",
              "type": "uint256"
            },
            {
              "components": [
                {
                  "name": "workerEventType",
                  "type": "uint8"
                },
                {
                  "name": "blockNumber",
                  "type": "uint256"
                },
                {
                  "name": "balance",
                  "type": "uint256"
                }
              ],
              "name": "workerLogs",
              "type": "tuple[]"
            }
          ],
          "name": "",
          "type": "tuple"
        }
      ],
      "payable": false,
      "stateMutability": "view",
      "type": "function"
    },
    {
      "constant": true,
      "inputs": [
        {
          "name": "_signer",
          "type": "address"
        }
      ],
      "name": "getWorkerFromSigningAddress",
      "outputs": [
        {
          "name": "",
          "type": "address"
        },
        {
          "components": [
            {
              "name": "signer",
              "type": "address"
            },
            {
              "name": "status",
              "type": "uint8"
            },
            {
              "name": "report",
              "type": "bytes"
            },
            {
              "name": "balance",
              "type": "uint256"
            },
            {
              "components": [
                {
                  "name": "workerEventType",
                  "type": "uint8"
                },
                {
                  "name": "blockNumber",
                  "type": "uint256"
                },
                {
                  "name": "balance",
                  "type": "uint256"
                }
              ],
              "name": "workerLogs",
              "type": "tuple[]"
            }
          ],
          "name": "",
          "type": "tuple"
        }
      ],
      "payable": false,
      "stateMutability": "view",
      "type": "function"
    },
    {
      "constant": true,
      "inputs": [
        {
          "name": "_sender",
          "type": "address"
        }
      ],
      "name": "getUserTaskDeployments",
      "outputs": [
        {
          "name": "",
          "type": "uint256"
        }
      ],
      "payable": false,
      "stateMutability": "view",
      "type": "function"
    },
    {
      "constant": true,
      "inputs": [],
      "name": "getEpochSize",
      "outputs": [
        {
          "name": "",
          "type": "uint256"
        }
      ],
      "payable": false,
      "stateMutability": "view",
      "type": "function"
    },
    {
      "constant": true,
      "inputs": [
        {
          "name": "_taskId",
          "type": "bytes32"
        }
      ],
      "name": "getTaskRecord",
      "outputs": [
        {
          "components": [
            {
              "name": "sender",
              "type": "address"
            },
            {
              "name": "inputsHash",
              "type": "bytes32"
            },
            {
              "name": "outputHash",
              "type": "bytes32"
            },
            {
              "name": "gasLimit",
              "type": "uint256"
            },
            {
              "name": "gasPx",
              "type": "uint256"
            },
            {
              "name": "blockNumber",
              "type": "uint256"
            },
            {
              "name": "status",
              "type": "uint8"
            },
            {
              "name": "proof",
              "type": "bytes"
            }
          ],
          "name": "",
          "type": "tuple"
        }
      ],
      "payable": false,
      "stateMutability": "view",
      "type": "function"
    },
    {
      "constant": true,
      "inputs": [
        {
          "name": "_scAddr",
          "type": "bytes32"
        }
      ],
      "name": "getSecretContract",
      "outputs": [
        {
          "components": [
            {
              "name": "owner",
              "type": "address"
            },
            {
              "name": "preCodeHash",
              "type": "bytes32"
            },
            {
              "name": "codeHash",
              "type": "bytes32"
            },
            {
              "name": "stateDeltaHashes",
              "type": "bytes32[]"
            },
            {
              "name": "status",
              "type": "uint8"
            }
          ],
          "name": "",
          "type": "tuple"
        }
      ],
      "payable": false,
      "stateMutability": "view",
      "type": "function"
    },
    {
      "constant": true,
      "inputs": [],
      "name": "getWorkersParams",
      "outputs": [
        {
          "components": [
            {
              "name": "firstBlockNumber",
              "type": "uint256"
            },
            {
              "name": "workers",
              "type": "address[]"
            },
            {
              "name": "stakes",
              "type": "uint256[]"
            },
            {
              "name": "seed",
              "type": "uint256"
            }
          ],
          "name": "",
          "type": "tuple[5]"
        }
      ],
      "payable": false,
      "stateMutability": "view",
      "type": "function"
    }
  ],
  "bytecode": "0x608060405234801561001057600080fd5b50611043806100206000396000f3fe608060405234801561001057600080fd5b50600436106100885760003560e01c8063c011b1c31161005b578063c011b1c31461010c578063d855a5791461012c578063df4da46114610141578063f9a9b7ae1461015657610088565b806370266a471461008d5780637624281e146100ab5780638ed05737146100cb578063a0c39982146100eb575b600080fd5b610095610169565b6040516100a29190610eb2565b60405180910390f35b6100be6100b93660046109df565b610283565b6040516100a29190610ec3565b6100de6100d93660046109df565b61034a565b6040516100a29190610ed4565b6100fe6100f93660046109b9565b610476565b6040516100a2929190610e92565b61011f61011a3660046109b9565b6106b9565b6040516100a29190610ee5565b61013461086a565b6040516100a29190610e84565b610149610886565b6040516100a29190610ef6565b6101496101643660046109b9565b61088c565b6101716108a7565b6040805160a08101909152600460056000835b8282101561027a57838260040201604051806080016040529081600082015481526020016001820180548060200260200160405190810160405280929190818152602001828054801561020057602002820191906000526020600020905b81546001600160a01b031681526001909101906020018083116101e2575b505050505081526020016002820180548060200260200160405190810160405280929190818152602001828054801561025857602002820191906000526020600020905b815481526020019060010190808311610244575b5050505050815260200160038201548152505081526020019060010190610184565b50505050905090565b61028b6108d5565b6000828152601c6020908152604091829020825160a08101845281546001600160a01b03168152600182015481840152600282015481850152600382018054855181860281018601909652808652919492936060860193929083018282801561031357602002820191906000526020600020905b8154815260200190600101908083116102ff575b5050509183525050600482015460209091019060ff16600181111561033457fe5b600181111561033f57fe5b90525090505b919050565b610352610900565b6000828152601b602090815260409182902082516101008101845281546001600160a01b03168152600182015492810192909252600281015492820192909252600382015460608201526004820154608082015260058083015460a0830152600683015491929160c084019160ff909116908111156103cd57fe5b60058111156103d857fe5b815260078201805460408051602060026001851615610100026000190190941693909304601f81018490048402820184019092528181529382019392918301828280156104665780601f1061043b57610100808354040283529160200191610466565b820191906000526020600020905b81548152906001019060200180831161044957829003601f168201915b5050505050815250509050919050565b6000610480610945565b600061048a610945565b60005b6018548110156106ae5760188054601a91600091849081106104ab57fe5b60009182526020808320909101546001600160a01b039081168452838201949094526040928301909120825160a081019093528054938416835291929083019060ff600160a01b90910416600281111561050157fe5b600281111561050c57fe5b8152602001600182018054600181600116156101000203166002900480601f0160208091040260200160405190810160405280929190818152602001828054600181600116156101000203166002900480156105a95780601f1061057e576101008083540402835291602001916105a9565b820191906000526020600020905b81548152906001019060200180831161058c57829003601f168201915b505050505081526020016002820154815260200160038201805480602002602001604051908101604052809291908181526020016000905b8282101561065457838290600052602060002090600302016040518060600160405290816000820160009054906101000a900460ff16600381111561062257fe5b600381111561062d57fe5b815260200160018201548152602001600282015481525050815260200190600101906105e1565b50505050815250509150856001600160a01b031682600001516001600160a01b031614156106a657601880548290811061068a57fe5b6000918252602090912001546001600160a01b031692506106ae565b60010161048d565b509092509050915091565b6106c1610945565b6001600160a01b038281166000908152601a6020908152604091829020825160a0810190935280549384168352919290830190600160a01b900460ff16600281111561070957fe5b600281111561071457fe5b8152602001600182018054600181600116156101000203166002900480601f0160208091040260200160405190810160405280929190818152602001828054600181600116156101000203166002900480156107b15780601f10610786576101008083540402835291602001916107b1565b820191906000526020600020905b81548152906001019060200180831161079457829003601f168201915b505050505081526020016002820154815260200160038201805480602002602001604051908101604052809291908181526020016000905b8282101561085c57838290600052602060002090600302016040518060600160405290816000820160009054906101000a900460ff16600381111561082a57fe5b600381111561083557fe5b815260200160018201548152602001600282015481525050815260200190600101906107e9565b505050915250909392505050565b336000908152601a60205260409020546001600160a01b031690565b60015490565b6001600160a01b03166000908152601d602052604090205490565b6040518061028001604052806005905b6108bf610975565b8152602001906001900390816108b75790505090565b6040805160a08101825260008082526020820181905291810182905260608082015290608082015290565b6040805161010081018252600080825260208201819052918101829052606081018290526080810182905260a081018290529060c08201908152602001606081525090565b6040805160a081019091526000808252602082019081526020016060815260200160008152602001606081525090565b6040518060800160405280600081526020016060815260200160608152602001600081525090565b80356109a881610fec565b92915050565b80356109a881611000565b6000602082840312156109cb57600080fd5b60006109d7848461099d565b949350505050565b6000602082840312156109f157600080fd5b60006109d784846109ae565b6000610a098383610a44565b505060200190565b6000610a098383610c04565b6000610a298383610d80565b505060600190565b6000610a3d8383610e29565b9392505050565b610a4d81610f20565b82525050565b6000610a5e82610f0d565b610a688185610f17565b9350610a7383610f04565b8060005b83811015610aa1578151610a8b88826109fd565b9750610a9683610f04565b925050600101610a77565b509495945050505050565b6000610ab782610f0d565b610ac18185610f17565b9350610acc83610f04565b8060005b83811015610aa1578151610ae48882610a11565b9750610aef83610f04565b925050600101610ad0565b6000610b0582610f0d565b610b0f8185610f17565b9350610b1a83610f04565b8060005b83811015610aa1578151610b328882610a1d565b9750610b3d83610f04565b925050600101610b1e565b6000610b5382610f11565b610b5d8185610345565b935083602082028501610b6f85610f0a565b8060005b85811015610ba95784840389528151610b8c8582610a31565b9450610b9783610f04565b60209a909a0199925050600101610b73565b5091979650505050505050565b6000610bc182610f0d565b610bcb8185610f17565b9350610bd683610f04565b8060005b83811015610aa1578151610bee8882610a11565b9750610bf983610f04565b925050600101610bda565b610a4d81610f0a565b6000610c1882610f0d565b610c228185610f17565b9350610c32818560208601610f8b565b610c3b81610fb7565b9093019392505050565b610a4d81610f5f565b610a4d81610f6a565b610a4d81610f75565b610a4d81610f80565b805160009060a0840190610c7d8582610a44565b506020830151610c906020860182610c04565b506040830151610ca36040860182610c04565b5060608301518482036060860152610cbb8282610aac565b9150506080830151610cd06080860182610c45565b509392505050565b8051600090610100840190610ced8582610a44565b506020830151610d006020860182610c04565b506040830151610d136040860182610c04565b506060830151610d266060860182610c04565b506080830151610d396080860182610c04565b5060a0830151610d4c60a0860182610c04565b5060c0830151610d5f60c0860182610c4e565b5060e083015184820360e0860152610d778282610c0d565b95945050505050565b80516060830190610d918482610c57565b506020820151610da46020850182610c04565b506040820151610db76040850182610c04565b50505050565b805160009060a0840190610dd18582610a44565b506020830151610de46020860182610c60565b5060408301518482036040860152610dfc8282610c0d565b9150506060830151610e116060860182610c04565b5060808301518482036080860152610d778282610afa565b80516000906080840190610e3d8582610c04565b5060208301518482036020860152610e558282610a53565b91505060408301518482036040860152610e6f8282610bb6565b9150506060830151610cd06060860182610c04565b602081016109a88284610a44565b60408101610ea08285610a44565b81810360208301526109d78184610dbd565b60208082528101610a3d8184610b48565b60208082528101610a3d8184610c69565b60208082528101610a3d8184610cd8565b60208082528101610a3d8184610dbd565b602081016109a88284610c04565b60200190565b90565b5190565b50600590565b90815260200190565b60006109a882610f53565b8061034581610fc1565b8061034581610fce565b8061034581610fd8565b8061034581610fe2565b6001600160a01b031690565b60006109a882610f2b565b60006109a882610f35565b60006109a882610f3f565b60006109a882610f49565b60005b83811015610fa6578181015183820152602001610f8e565b83811115610db75750506000910152565b601f01601f191690565b60028110610fcb57fe5b50565b60068110610fcb57fe5b60048110610fcb57fe5b60038110610fcb57fe5b610ff581610f20565b8114610fcb57600080fd5b610ff581610f0a56fea265627a7a72305820b9f9e6e2251028489d8d77f198fc85b2318d3a91189d7486a0e21e9091d172176c6578706572696d656e74616cf50037",
  "source": "pragma solidity ^0.5.0;\npragma experimental ABIEncoderV2;\n\nimport {EnigmaCommon} from \"./EnigmaCommon.sol\";\nimport {EnigmaStorage} from \"./EnigmaStorage.sol\";\n\n/**\n * @author Enigma\n *\n * Getter functions to be used by Enigma library to access state variables\n */\ncontract Getters is EnigmaStorage {\n    /**\n    * Get signing address of calling worker\n    *\n    * @return Signing address\n    */\n    function getSigningAddress() public view returns (address) {\n        return state.workers[msg.sender].signer;\n    }\n\n    /**\n    * Get Worker struct from a given worker's ethereum address\n    *\n    * @param _worker Worker's ethereum address\n    * @return Worker struct\n    */\n    function getWorker(address _worker) public view returns (EnigmaCommon.Worker memory) {\n        return state.workers[_worker];\n    }\n\n    /**\n    * Get Worker struct from a given worker's signing address\n    *\n    * @param _signer Worker's signing address\n    * @return Ethereum address\n    * @return Worker struct\n    */\n    function getWorkerFromSigningAddress(address _signer) public view returns (address, EnigmaCommon.Worker memory) {\n        address account;\n        EnigmaCommon.Worker memory worker;\n        for (uint i = 0; i < state.workerAddresses.length; i++) {\n            worker = state.workers[state.workerAddresses[i]];\n            if (worker.signer == _signer) {\n                account = state.workerAddresses[i];\n                break;\n            }\n        }\n        return (account, worker);\n    }\n\n    /**\n    * Get the current number/index (used as unique nonce value) of task deployments for a given user user\n    *\n    * @param _sender Task sender's ethereum address\n    * @return Current number for task deployments for user\n    */\n    function getUserTaskDeployments(address _sender) public view returns (uint) {\n        return state.userTaskDeployments[_sender];\n    }\n\n    /**\n    * Get the epoch block size\n    *\n    * @return Epoch size\n    */\n    function getEpochSize() public view returns (uint) {\n        return state.epochSize;\n    }\n\n    /**\n    * Get a TaskRecord struct given a particular task's ID\n    *\n    * @param _taskId Unique identifier for a given task\n    * @return TaskRecord struct\n    */\n    function getTaskRecord(bytes32 _taskId) public view returns (EnigmaCommon.TaskRecord memory) {\n        return state.tasks[_taskId];\n    }\n\n    /**\n    * Get a SecretContract struct given a particular secret contract address\n    *\n    * @param _scAddr Secret contract address\n    * @return SecretContract struct\n    */\n    function getSecretContract(bytes32 _scAddr) public view returns (EnigmaCommon.SecretContract memory) {\n        return state.contracts[_scAddr];\n    }\n\n    /**\n    * Get epoch-based history of worker params information\n    *\n    * @return Array of WorkersParams structs\n    */\n    function getWorkersParams() public view returns (EnigmaCommon.WorkersParams[5] memory) {\n        return state.workersParams;\n    }\n}\n",
  "sourcePath": "/root/enigma-contract/contracts/impl/Getters.sol",
  "compiler": {
    "name": "solc",
    "version": "0.5.8+commit.23d335f2.Emscripten.clang"
  },
  "schemaVersion": "3.0.11",
  "updatedAt": "2019-08-12T23:39:54.474Z",
  "devdoc": {
    "author": "Enigma * Getter functions to be used by Enigma library to access state variables",
    "methods": {
      "getEpochSize()": {
        "return": "Epoch size"
      },
      "getSecretContract(bytes32)": {
        "params": {
          "_scAddr": "Secret contract address"
        },
        "return": "SecretContract struct"
      },
      "getSigningAddress()": {
        "return": "Signing address"
      },
      "getTaskRecord(bytes32)": {
        "params": {
          "_taskId": "Unique identifier for a given task"
        },
        "return": "TaskRecord struct"
      },
      "getUserTaskDeployments(address)": {
        "params": {
          "_sender": "Task sender's ethereum address"
        },
        "return": "Current number for task deployments for user"
      },
      "getWorker(address)": {
        "params": {
          "_worker": "Worker's ethereum address"
        },
        "return": "Worker struct"
      },
      "getWorkerFromSigningAddress(address)": {
        "params": {
          "_signer": "Worker's signing address"
        },
        "return": "Ethereum addressWorker struct"
      },
      "getWorkersParams()": {
        "return": "Array of WorkersParams structs"
      }
    }
  },
  "userdoc": {
    "methods": {
      "getEpochSize()": {
        "notice": "Get the epoch block size"
      },
      "getSecretContract(bytes32)": {
        "notice": "Get a SecretContract struct given a particular secret contract address"
      },
      "getSigningAddress()": {
        "notice": "Get signing address of calling worker"
      },
      "getTaskRecord(bytes32)": {
        "notice": "Get a TaskRecord struct given a particular task's ID"
      },
      "getUserTaskDeployments(address)": {
        "notice": "Get the current number/index (used as unique nonce value) of task deployments for a given user user"
      },
      "getWorker(address)": {
        "notice": "Get Worker struct from a given worker's ethereum address"
      },
      "getWorkerFromSigningAddress(address)": {
        "notice": "Get Worker struct from a given worker's signing address"
      },
      "getWorkersParams()": {
        "notice": "Get epoch-based history of worker params information"
      }
    }
  }
}