{
  "contractName": "VotingETH",
  "abi": [
    {
      "constant": true,
      "inputs": [
        {
          "name": "",
          "type": "uint256"
        }
      ],
      "name": "polls",
      "outputs": [
        {
          "name": "creator",
          "type": "address"
        },
        {
          "name": "quorumPercentage",
          "type": "uint256"
        },
        {
          "name": "expirationTime",
          "type": "uint256"
        },
        {
          "name": "status",
          "type": "uint8"
        },
        {
          "name": "description",
          "type": "string"
        }
      ],
      "payable": false,
      "stateMutability": "view",
      "type": "function"
    },
    {
      "inputs": [],
      "payable": false,
      "stateMutability": "nonpayable",
      "type": "constructor"
    },
    {
      "constant": false,
      "inputs": [
        {
          "name": "_quorumPercentage",
          "type": "uint256"
        },
        {
          "name": "_description",
          "type": "string"
        },
        {
          "name": "_pollLength",
          "type": "uint256"
        }
      ],
      "name": "createPoll",
      "outputs": [],
      "payable": false,
      "stateMutability": "nonpayable",
      "type": "function"
    },
    {
      "constant": false,
      "inputs": [
        {
          "name": "_pollId",
          "type": "uint256"
        }
      ],
      "name": "validateCastVote",
      "outputs": [],
      "payable": false,
      "stateMutability": "nonpayable",
      "type": "function"
    },
    {
      "constant": false,
      "inputs": [
        {
          "name": "_pollId",
          "type": "uint256"
        },
        {
          "name": "_talliedQuorum",
          "type": "uint256"
        }
      ],
      "name": "validateTallyPoll",
      "outputs": [],
      "payable": false,
      "stateMutability": "nonpayable",
      "type": "function"
    },
    {
      "constant": false,
      "inputs": [],
      "name": "getPolls",
      "outputs": [
        {
          "components": [
            {
              "name": "creator",
              "type": "address"
            },
            {
              "name": "quorumPercentage",
              "type": "uint256"
            },
            {
              "name": "expirationTime",
              "type": "uint256"
            },
            {
              "name": "status",
              "type": "uint8"
            },
            {
              "name": "description",
              "type": "string"
            }
          ],
          "name": "",
          "type": "tuple[]"
        }
      ],
      "payable": false,
      "stateMutability": "nonpayable",
      "type": "function"
    }
  ],
  "bytecode": "0x608060405234801561001057600080fd5b50610d3f806100206000396000f3fe608060405234801561001057600080fd5b50600436106100575760003560e01c8063120fe89b1461005c578063236e1b931461007a57806340a7dba91461008f578063796f5606146100a2578063ac2f0074146100b5575b600080fd5b6100646100d9565b6040516100719190610baa565b60405180910390f35b61008d610088366004610825565b61021b565b005b61008d61009d3660046107ff565b6103a0565b61008d6100b036600461088a565b61052c565b6100c86100c33660046107ff565b6105f7565b604051610071959493929190610b58565b60606000805480602002602001604051908101604052809291908181526020016000905b828210156102115760008481526020908190206040805160a0810182526005860290920180546001600160a01b03168352600181015493830193909352600283015490820152600380830154919291606084019160ff9091169081111561016057fe5b600381111561016b57fe5b815260048201805460408051602060026001851615610100026000190190941693909304601f81018490048402820184019092528181529382019392918301828280156101f95780601f106101ce576101008083540402835291602001916101f9565b820191906000526020600020905b8154815290600101906020018083116101dc57829003601f168201915b505050505081525050815260200190600101906100fd565b5050505090505b90565b606483111561024857604051600160e51b62461bcd02815260040161023f90610bdb565b60405180910390fd5b6000811161026b57604051600160e51b62461bcd02815260040161023f90610bfb565b6040805160a08101825233815260208101858152428401928201928352600160608301818152608084018790526000805480840180835591805285517f290decd9548b62a8d60345a988386fc84ba6bc95484008f6362f93160ef3e563600590920291820180546001600160a01b0319166001600160a01b0390921691909117815594517f290decd9548b62a8d60345a988386fc84ba6bc95484008f6362f93160ef3e56482015595517f290decd9548b62a8d60345a988386fc84ba6bc95484008f6362f93160ef3e56587015590517f290decd9548b62a8d60345a988386fc84ba6bc95484008f6362f93160ef3e5669095018054919592909160ff19169083600381111561037757fe5b0217905550608082015180516103979160048401916020909101906106d3565b50505050505050565b600054819081106103c657604051600160e51b62461bcd02815260040161023f90610bcb565b6103ce610751565b600083815481106103db57fe5b60009182526020918290206040805160a081018252600590930290910180546001600160a01b03168352600181015493830193909352600283015490820152600380830154919291606084019160ff9091169081111561043757fe5b600381111561044257fe5b815260048201805460408051602060026001851615610100026000190190941693909304601f81018490048402820184019092528181529382019392918301828280156104d05780601f106104a5576101008083540402835291602001916104d0565b820191906000526020600020905b8154815290600101906020018083116104b357829003601f168201915b5050505050815250509050600160038111156104e857fe5b816060015160038111156104f857fe5b1480156105085750806040015142105b61052757604051600160e51b62461bcd02815260040161023f90610bbb565b505050565b6000548290811061055257604051600160e51b62461bcd02815260040161023f90610bcb565b600080848154811061056057fe5b600091825260209091206005909102019050600160038083015460ff169081111561058757fe5b148015610598575080600201544210155b6105b757604051600160e51b62461bcd02815260040161023f90610beb565b80600101548310156105ca5760036105cd565b60025b8160030160006101000a81548160ff021916908360038111156105ec57fe5b021790555050505050565b6000818154811061060457fe5b600091825260209182902060059190910201805460018083015460028085015460038601546004870180546040805161010098831615989098026000190190911694909404601f81018a90048a0287018a019094528386526001600160a01b0390961698509296909560ff9093169492939291908301828280156106c95780601f1061069e576101008083540402835291602001916106c9565b820191906000526020600020905b8154815290600101906020018083116106ac57829003601f168201915b5050505050905085565b828054600181600116156101000203166002900490600052602060002090601f016020900481019282601f1061071457805160ff1916838001178555610741565b82800160010185558215610741579182015b82811115610741578251825591602001919060010190610726565b5061074d929150610780565b5090565b6040805160a0810182526000808252602082018190529181018290529060608201908152602001606081525090565b61021891905b8082111561074d5760008155600101610786565b600082601f8301126107ab57600080fd5b81356107be6107b982610c32565b610c0b565b915080825260208301602083018583830111156107da57600080fd5b6107e5838284610c9e565b50505092915050565b80356107f981610cf1565b92915050565b60006020828403121561081157600080fd5b600061081d84846107ee565b949350505050565b60008060006060848603121561083a57600080fd5b600061084686866107ee565b935050602084013567ffffffffffffffff81111561086357600080fd5b61086f8682870161079a565b9250506040610880868287016107ee565b9150509250925092565b6000806040838503121561089d57600080fd5b60006108a985856107ee565b92505060206108ba858286016107ee565b9150509250929050565b60006108d08383610ae1565b9392505050565b6108e081610c6d565b82525050565b60006108f182610c60565b6108fb8185610c64565b93508360208202850161090d85610c5a565b8060005b85811015610947578484038952815161092a85826108c4565b945061093583610c5a565b60209a909a0199925050600101610911565b5091979650505050505050565b6108e081610c93565b600061096882610c60565b6109728185610c64565b9350610982818560208601610caa565b61098b81610cda565b9093019392505050565b60006109a2601f83610c64565b7f496e76616c696420706f6c6c20766f7465206265696e67206361737420746f00815260200192915050565b60006109db601383610c64565b7f4e6f7420612076616c696420706f6c6c20494400000000000000000000000000815260200192915050565b6000610a14602783610c64565b7f51756f72756d2070657263656e74616765206d757374206265206c65737320748152600160cc1b66068616e203130302602082015260400192915050565b6000610a60602283610c64565b7f496e76616c696420706f6c6c20726573756c7473206265696e672074616c6c698152600160f21b61195902602082015260400192915050565b6000610aa7602283610c64565b7f506f6c6c206c656e677468206d7573742062652067726561746572207468616e8152600160f41b61020302602082015260400192915050565b805160009060a0840190610af585826108d7565b506020830151610b086020860182610b4f565b506040830151610b1b6040860182610b4f565b506060830151610b2e6060860182610954565b5060808301518482036080860152610b46828261095d565b95945050505050565b6108e081610218565b60a08101610b6682886108d7565b610b736020830187610b4f565b610b806040830186610b4f565b610b8d6060830185610954565b8181036080830152610b9f818461095d565b979650505050505050565b602080825281016108d081846108e6565b602080825281016107f981610995565b602080825281016107f9816109ce565b602080825281016107f981610a07565b602080825281016107f981610a53565b602080825281016107f981610a9a565b60405181810167ffffffffffffffff81118282101715610c2a57600080fd5b604052919050565b600067ffffffffffffffff821115610c4957600080fd5b506020601f91909101601f19160190565b60200190565b5190565b90815260200190565b60006107f982610c87565b80610c8281610ce4565b919050565b6001600160a01b031690565b60006107f982610c78565b82818337506000910152565b60005b83811015610cc5578181015183820152602001610cad565b83811115610cd4576000848401525b50505050565b601f01601f191690565b60048110610cee57fe5b50565b610cfa81610218565b8114610cee57600080fdfea265627a7a72305820b0ddb991219d0787455b7fa5c2958cbc2ebf90cc52aa389ed8c015faaf36a8e96c6578706572696d656e74616cf50037",
  "source": "pragma solidity ^0.5.0;\npragma experimental ABIEncoderV2;\n\ncontract VotingETH {\n    struct Poll {\n        address creator;\n        uint256 quorumPercentage;\n        uint256 expirationTime;\n        PollStatus status;\n        string description;\n    }\n\n    enum PollStatus { UNDEFINED, IN_PROGRESS, PASSED, REJECTED }\n\n    Poll[] public polls;\n\n    constructor() public {\n\n    }\n\n    modifier validPoll(uint256 _pollId) {\n        require(_pollId < polls.length, \"Not a valid poll ID\");\n        _;\n    }\n\n    function createPoll(uint256 _quorumPercentage, string memory _description, uint256 _pollLength) public {\n        require(_quorumPercentage <= 100, \"Quorum percentage must be less than 100\");\n        require(_pollLength > 0, \"Poll length must be greater than 0\");\n        polls.push(Poll({\n            creator: msg.sender,\n            quorumPercentage: _quorumPercentage,\n            expirationTime: now + _pollLength * 1 seconds,\n            status: PollStatus.IN_PROGRESS,\n            description: _description\n            }));\n    }\n\n    function validateCastVote(uint256 _pollId) public validPoll(_pollId) {\n        Poll memory poll = polls[_pollId];\n        require((poll.status == PollStatus.IN_PROGRESS) && (now < poll.expirationTime), \"Invalid poll vote being cast to\");\n    }\n\n    function validateTallyPoll(uint256 _pollId, uint256 _talliedQuorum) public validPoll(_pollId) {\n        Poll storage poll = polls[_pollId];\n        require((poll.status == PollStatus.IN_PROGRESS) && (now >= poll.expirationTime), \"Invalid poll results being tallied\");\n        poll.status = _talliedQuorum >= poll.quorumPercentage ? PollStatus.PASSED : PollStatus.REJECTED;\n    }\n\n    function getPolls() public returns (Poll[] memory) {\n        return polls;\n    }\n}\n",
  "sourcePath": "/root/enigma-contract/contracts/VotingETH.sol",
  "compiler": {
    "name": "solc",
    "version": "0.5.8+commit.23d335f2.Emscripten.clang"
  },
  "schemaVersion": "3.0.11",
  "updatedAt": "2019-08-13T02:59:53.038Z",
  "devdoc": {
    "methods": {}
  },
  "userdoc": {
    "methods": {}
  }
}