{
  "contractName": "WorkersImpl",
  "abi": [
    {
      "anonymous": false,
      "inputs": [
        {
          "indexed": false,
          "name": "custodian",
          "type": "address"
        },
        {
          "indexed": false,
          "name": "signer",
          "type": "address"
        }
      ],
      "name": "Registered",
      "type": "event"
    },
    {
      "anonymous": false,
      "inputs": [
        {
          "indexed": false,
          "name": "from",
          "type": "address"
        },
        {
          "indexed": false,
          "name": "value",
          "type": "uint256"
        }
      ],
      "name": "DepositSuccessful",
      "type": "event"
    },
    {
      "anonymous": false,
      "inputs": [
        {
          "indexed": false,
          "name": "to",
          "type": "address"
        },
        {
          "indexed": false,
          "name": "value",
          "type": "uint256"
        }
      ],
      "name": "WithdrawSuccessful",
      "type": "event"
    },
    {
      "constant": true,
      "inputs": [
        {
          "name": "_data",
          "type": "bytes"
        },
        {
          "name": "_signature",
          "type": "bytes"
        }
      ],
      "name": "verifyReportImpl",
      "outputs": [
        {
          "name": "",
          "type": "uint256"
        }
      ],
      "payable": false,
      "stateMutability": "view",
      "type": "function"
    },
    {
      "constant": true,
      "inputs": [
        {
          "components": [
            {
              "name": "signer",
              "type": "address"
            },
            {
              "name": "status",
              "type": "EnigmaCommon.WorkerStatus"
            },
            {
              "name": "report",
              "type": "bytes"
            },
            {
              "name": "balance",
              "type": "uint256"
            },
            {
              "components": [
                {
                  "name": "workerEventType",
                  "type": "EnigmaCommon.WorkerLogType"
                },
                {
                  "name": "blockNumber",
                  "type": "uint256"
                },
                {
                  "name": "balance",
                  "type": "uint256"
                }
              ],
              "name": "workerLogs",
              "type": "tuple[]"
            }
          ],
          "name": "worker",
          "type": "tuple"
        },
        {
          "name": "_blockNumber",
          "type": "uint256"
        }
      ],
      "name": "getLatestWorkerLogImpl",
      "outputs": [
        {
          "components": [
            {
              "name": "workerEventType",
              "type": "EnigmaCommon.WorkerLogType"
            },
            {
              "name": "blockNumber",
              "type": "uint256"
            },
            {
              "name": "balance",
              "type": "uint256"
            }
          ],
          "name": "",
          "type": "tuple"
        }
      ],
      "payable": false,
      "stateMutability": "pure",
      "type": "function"
    }
  ],
  "bytecode": "0x612b8b610026600b82828239805160001a60731461001957fe5b30600052607381538281f3fe73000000000000000000000000000000000000000030146080604052600436106100b35760003560e01c806349e44f491161007b57806349e44f49146101675780639646236814610187578063a378cd841461019a578063bbd5bf7a146101ba578063bf6df464146101da578063c7d11e20146101fa576100b3565b8063198cc4cb146100b857806326ae0898146100e45780632f68f031146101045780633151b8e2146101255780633a0120c414610147575b600080fd5b6100cb6100c636600461225d565b61021a565b6040516100db949392919061282d565b60405180910390f35b6100f76100f236600461225d565b610255565b6040516100db9190612804565b61011761011236600461214f565b610274565b6040516100db929190612737565b81801561013157600080fd5b50610145610140366004612131565b61046d565b005b81801561015357600080fd5b50610145610162366004612210565b610519565b81801561017357600080fd5b50610145610182366004612131565b6106d9565b6100f76101953660046120c8565b610717565b6101ad6101a83660046122bf565b61076b565b6040516100db91906127f6565b6101cd6101c836600461228d565b6107e1565b6040516100db9190612765565b8180156101e657600080fd5b506101456101f536600461225d565b61093c565b81801561020657600080fd5b5061014561021536600461217f565b610a72565b600080606080610228611d19565b6102328787610cde565b805160608201516020830151604090930151919a90995091975095509350505050565b600061025f611d19565b6102698484610cde565b519150505b92915050565b60006060610280611d41565b6001600160a01b038481166000908152601a87016020908152604091829020825160a0810190935280549384168352919290830190600160a01b900460ff1660028111156102ca57fe5b60028111156102d557fe5b8152602001600182018054600181600116156101000203166002900480601f0160208091040260200160405190810160405280929190818152602001828054600181600116156101000203166002900480156103725780601f1061034757610100808354040283529160200191610372565b820191906000526020600020905b81548152906001019060200180831161035557829003601f168201915b505050505081526020016002820154815260200160038201805480602002602001604051908101604052809291908181526020016000905b8282101561041d57838290600052602060002090600302016040518060600160405290816000820160009054906101000a900460ff1660038111156103eb57fe5b60038111156103f657fe5b815260200160018201548152602001600282015481525050815260200190600101906103aa565b5050509152505080519091506001600160a01b031661045a57604051600160e51b62461bcd02815260040161045190612796565b60405180910390fd5b8051604090910151909590945092505050565b336000908152601a82016020526040908190208054600160a01b60ff021916600160a01b1781558151606081019092529060038201908060015b815243602080830191909152600285015460409092019190915282546001818101808655600095865292909420835160039283029091018054939590939192849260ff1916919084908111156104f957fe5b021790555060208201518160010155604082015181600201555050505050565b8254604051600160e11b636eb1769f02815282916001600160a01b03169063dd62ed3e9061054d9086903090600401612701565b60206040518083038186803b15801561056557600080fd5b505afa158015610579573d6000803e3d6000fd5b505050506040513d601f19601f8201168201806040525061059d91908101906120aa565b10156105be57604051600160e51b62461bcd02815260040161045190612776565b8254604051600160e01b6323b872dd0281526001600160a01b03909116906323b872dd906105f49085903090869060040161270f565b602060405180830381600087803b15801561060e57600080fd5b505af1158015610622573d6000803e3d6000fd5b505050506040513d601f19601f82011682018060405250610646919081019061208c565b61066557604051600160e51b62461bcd02815260040161045190612786565b6001600160a01b0382166000908152601a8401602052604090206002810154610694908363ffffffff610de916565b60028201556040517fb3ef81558ed1a50072a492984535a009da8b129c749500b387f1e5f4886bdde5906106cb9085908590612757565b60405180910390a150505050565b336000908152601a82016020526040908190208054600160a01b60ff021916600160a11b1781558151606081019092529060038201908060026104a7565b600060606040518060a00160405280608081526020016129d260809139905060606040518061012001604052806101008152602001612a526101009139905061076285858484610dfb565b95945050505050565b610773611d71565b61077b611d71565b6080840151515b80156107d957838560800151600183038151811061079c57fe5b60200260200101516020015110156107d057846080015160018203815181106107c157fe5b602002602001015191506107d9565b60001901610782565b509392505050565b606060006107ef8585610e63565b9050600085600401826005811061080257fe5b60040201600101805490509050600086601f015482106108265786601f0154610828565b815b9050606081604051908082528060200260200182016040528015610856578160200160208202803883390190505b5090506000805b8381101561092c575b60006108748b888b86610f13565b90506000805b85518110156108c15785818151811061088f57fe5b60200260200101516001600160a01b0316836001600160a01b031614156108b957600191506108c1565b60010161087a565b50806108f557818584815181106108d457fe5b60200260200101906001600160a01b031690816001600160a01b0316815250505b5050825160019092019160009084908390811061090e57fe5b60200260200101516001600160a01b0316146108665760010161085d565b50909450505050505b9392505050565b336000908152601a830160205260409020600281015482111561097457604051600160e51b62461bcd028152600401610451906127e6565b8254604051600160e01b63a9059cbb0281526001600160a01b039091169063a9059cbb906109a890339086906004016126e6565b602060405180830381600087803b1580156109c257600080fd5b505af11580156109d6573d6000803e3d6000fd5b505050506040513d601f19601f820116820180604052506109fa919081019061208c565b610a1957604051600160e51b62461bcd02815260040161045190612786565b6002810154610a2e908363ffffffff61118616565b60028201556040517f84e742a3ea03623687a5febaa797636d728230721d4b3d1405d19fbbc16298d990610a6590339085906126e6565b60405180910390a1505050565b336000908152601a85016020526040902080546001600160a01b0316610aba57601885018054600181018255600091825260209091200180546001600160a01b031916331790555b610ac48383610717565b15610ae457604051600160e51b62461bcd028152600401610451906127b6565b60005b835181108015610bb15750838181518110610afe57fe5b602001015160f81c60f81b6001600160f81b031916604260f81b148015610b4b5750838160010181518110610b2f57fe5b602001015160f81c60f81b6001600160f81b031916606f60f81b145b8015610b7d5750838160020181518110610b6157fe5b602001015160f81c60f81b6001600160f81b031916606460f81b145b8015610baf5750838160030181518110610b9357fe5b602001015160f81c60f81b6001600160f81b031916607960f81b145b155b15610bbe57600101610ae7565b83518110610be157604051600160e51b62461bcd028152600401610451906127c6565b6007016060610bf3858361024061119b565b90506060610c00826111ec565b90506060610c1282610170604061119b565b90506000610c1f826114c2565b9050886001600160a01b0316816001600160a01b031614610c5557604051600160e51b62461bcd028152600401610451906127a6565b85546001600160a01b0319166001600160a01b038a161786558751610c8390600188019060208b0190611d93565b508554600160a01b60ff021916600160a11b1786556040517f0a31ee9d46a828884b81003c8498156ea6aa15b9b54bdd0ef0b533d9eba57e5590610cca9033908c906126cb565b60405180910390a150505050505050505050565b610ce6611d19565b6000610cf28484610e63565b9050836004018160058110610d0357fe5b600402016040518060800160405290816000820154815260200160018201805480602002602001604051908101604052809291908181526020018280548015610d7557602002820191906000526020600020905b81546001600160a01b03168152600190910190602001808311610d57575b5050505050815260200160028201805480602002602001604051908101604052809291908181526020018280548015610dcd57602002820191906000526020600020905b815481526020019060010190808311610db9575b5050505050815260200160038201548152505091505092915050565b60008282018381101561093557600080fd5b6000610e58600286604051610e1091906126bf565b602060405180830381855afa158015610e2d573d6000803e3d6000fd5b5050506040513d601f19601f82011682018060405250610e5091908101906120aa565b8585856114c9565b90505b949350505050565b6000600019815b6005811015610ee05783856004018260058110610e8357fe5b600402015411801590610ecf57508160000b6000191480610ecf5750846004018260000b60058110610eb157fe5b6004020160000154856004018260058110610ec857fe5b6004020154115b15610ed8578091505b600101610e6a565b508060000b6000191415610f0957604051600160e51b62461bcd028152600401610451906127d6565b60000b9392505050565b6000610f1d611d19565b856004018560058110610f2c57fe5b600402016040518060800160405290816000820154815260200160018201805480602002602001604051908101604052809291908181526020018280548015610f9e57602002820191906000526020600020905b81546001600160a01b03168152600190910190602001808311610f80575b5050505050815260200160028201805480602002602001604051908101604052809291908181526020018280548015610ff657602002820191906000526020600020905b815481526020019060010190808311610fe2575b50505091835250506003919091015460209091015290506000805b8260200151518110156110845760006001600160a01b03168360200151828151811061103957fe5b60200260200101516001600160a01b03161461107c576110798360400151828151811061106257fe5b602002602001015183610de990919063ffffffff16565b91505b600101611011565b506000826060015186866040516020016110a093929190612812565b6040516020818303038152906040528051906020012090506000828260001c816110c657fe5b06905060005b84602001515181101561115a5760006001600160a01b0316856020015182815181106110f457fe5b60200260200101516001600160a01b031614611152578460400151818151811061111a57fe5b60200260200101518203915060008213611152578460200151818151811061113e57fe5b602002602001015195505050505050610e5b565b6001016110cc565b5060208401518051600019810190811061117057fe5b6020026020010151945050505050949350505050565b60008282111561119557600080fd5b50900390565b606080826040519080825280601f01601f1916602001820160405280156111c9576020820181803883390190505b509050602084860181019082016111e18282876117c1565b509095945050505050565b805160408051828152601f19601f8401168101602001909152606091600091829190829081908190819085801561122a576020820181803883390190505b509750611235611e11565b61123d611802565b90505b858810156114b4575b808a89806001019a508151811061125c57fe5b016020015160f890811c811b901c6080811061127457fe5b60200201519450858810801561128e57508460000b600019145b611249578460000b60001914156112a4576114b4565b808a89806001019a50815181106112b757fe5b016020015160f890811c811b901c608081106112cf57fe5b6020020151935085881080156112e957508360000b600019145b6112a4578360000b60001914156112ff576114b4565b60106030851660000b05856004021760f81b89888060010199508151811061132357fe5b60200101906001600160f81b031916908160001a9053505b60ff8a89806001019a508151811061134f57fe5b602001015160f81c60f81b60f81c1692508260000b603d141561137a57506114bd9650505050505050565b808360ff166080811061138957fe5b6020020151925085881080156113a357508260000b600019145b61133b578260000b60001914156113b9576114b4565b6004603c841660000b0584600f166010021760f81b8988806001019950815181106113e057fe5b60200101906001600160f81b031916908160001a9053505b60ff8a89806001019a508151811061140c57fe5b602001015160f81c60f81b60f81c1691508160000b603d141561143757506114bd9650505050505050565b808260ff166080811061144657fe5b60200201519150858810801561146057508160000b600019145b6113f8578160000b6000191415611476576114b4565b8160068460031660000b901b1760f81b89888060010199508151811061149857fe5b60200101906001600160f81b031916908160001a905350611240565b50505050505050505b919050565b6014015190565b60006114d3611e30565b5060408051610260810182526030808252603160208084019190915292820152600d60608083019190915260066080830152600960a083015260c0820152608660e0820152604861010082015260016101208201819052606561014083015260036101608301526004610180830181905260026101a08401526101c083019190915260056101e083015260006102008301526102208201526102408101919091528251603e111561158357600080fd5b60006060611592878787611c12565b8051865160408051828152601f19601f840116810160200190915292935090916060908280156115c9576020820181803883390190505b5090508160208201846020870160056107d05a03fa50805160351983019082906000906115f257fe5b01602001516001600160f81b031960f891821c90911b1615158061163457508160018151811061161e57fe5b602001015160f81c60f81b60f81c60ff16600114155b15611649576001975050505050505050610e5b565b600295505b8060020186101561169f5781868151811061166557fe5b602001015160f81c60f81b6001600160f81b03191660ff60f81b14611694576002975050505050505050610e5b565b60019095019461164e565b8181600201815181106116ae57fe5b01602001516001600160f81b031960f891821c90911b16156116da576003975050505050505050610e5b565b600095505b601386101561173e578686601381106116f457fe5b602002015160ff16828783600301018151811061170d57fe5b602001015160f81c60f81b60f81c60ff1614611733576004975050505050505050610e5b565b6001909501946116df565b600095505b60208610156117af578b866020811061175857fe5b1a60f81b6001600160f81b031916828760138460030101018151811061177a57fe5b602001015160f81c60f81b6001600160f81b031916146117a4576005975050505050505050610e5b565b600190950194611743565b5060009b9a5050505050505050505050565b5b602081106117e1578251825260209283019290910190601f19016117c2565b915181516020939093036101000a6000190180199091169216919091179052565b61180a611e11565b5060408051611000810182526000198082526020808301829052928201819052606082018190526080820181905260a0820181905260c0820181905260e08201819052610100820181905261012082018190526101408201819052610160820181905261018082018190526101a082018190526101c082018190526101e08201819052610200820181905261022082018190526102408201819052610260820181905261028082018190526102a082018190526102c082018190526102e08201819052610300820181905261032082018190526103408201819052610360820181905261038082018190526103a082018190526103c082018190526103e08201819052610400820181905261042082018190526104408201819052610460820181905261048082018190526104a082018190526104c082018190526104e08201819052610500820181905261052082018190526105408201819052603e61056083015261058082018190526105a082018190526105c08201819052603f6105e08301526034610600830152603561062083015260366106408301526037610660830152603861068083015260396106a0830152603a6106c0830152603b6106e0830152603c610700830152603d6107208301526107408201819052610760820181905261078082018190526107a082018190526107c082018190526107e082018190526108008201819052600061082083015260016108408301526002610860830152600361088083015260046108a083015260056108c083015260066108e0830152600761090083015260086109208301526009610940830152600a610960830152600b610980830152600c6109a0830152600d6109c0830152600e6109e0830152600f610a008301526010610a208301526011610a408301526012610a608301526013610a808301526014610aa08301526015610ac08301526016610ae08301526017610b008301526018610b208301526019610b40830152610b608201819052610b808201819052610ba08201819052610bc08201819052610be08201819052610c008201819052601a610c20830152601b610c40830152601c610c60830152601d610c80830152601e610ca0830152601f610cc0830152610ce08201929092526021610d008201526022610d208201526023610d408201526024610d608201526025610d808201526026610da08201526027610dc08201526028610de08201526029610e00820152602a610e20820152602b610e40820152602c610e60820152602d610e80820152602e610ea0820152602f610ec08201526030610ee08201526031610f008201526032610f208201526033610f40820152610f608101829052610f808101829052610fa08101829052610fc08101829052610fe081019190915290565b60606000825184518651606001010190506000855190506000855190506000855190506000806000806060886040519080825280601f01601f191660200182016040528015611c68576020820181803883390190505b50905060208d01945060208c01935060208b019250876020820152866040820152856060820152602081019150611ca482606001868f51611cdb565b611cb68d518360600101858e51611cdb565b611ccb8c518e51846060010101848d51611cdb565b9c9b505050505050505050505050565b5b60208110611cfb578151835260209283019290910190601f1901611cdc565b905182516020929092036101000a6000190180199091169116179052565b6040518060800160405280600081526020016060815260200160608152602001600081525090565b6040805160a081019091526000808252602082019081526020016060815260200160008152602001606081525090565b6040805160608101909152806000815260200160008152602001600081525090565b828054600181600116156101000203166002900490600052602060002090601f016020900481019282601f10611dd457805160ff1916838001178555611e01565b82800160010185558215611e01579182015b82811115611e01578251825591602001919060010190611de6565b50611e0d929150611e4f565b5090565b6040518061100001604052806080906020820280388339509192915050565b6040518061026001604052806013906020820280388339509192915050565b611e6991905b80821115611e0d5760008155600101611e55565b90565b803561026e81612991565b600082601f830112611e8857600080fd5b8135611e9b611e968261289f565b612878565b91508181835260208401935060208101905083856060840282011115611ec057600080fd5b60005b83811015611eee5781611ed68882611f7e565b84525060209092019160609190910190600101611ec3565b5050505092915050565b805161026e816129a5565b803561026e816129ae565b805161026e816129ae565b600082601f830112611f2a57600080fd5b8135611f38611e96826128c0565b91508082526020830160208301858383011115611f5457600080fd5b611f5f838284612942565b50505092915050565b803561026e816129b7565b803561026e816129c4565b600060608284031215611f9057600080fd5b611f9a6060612878565b90506000611fa88484611f68565b8252506020611fb984848301611f03565b6020830152506040611fcd84828501611f03565b60408301525092915050565b600060a08284031215611feb57600080fd5b611ff560a0612878565b905060006120038484611e6c565b825250602061201484848301611f73565b602083015250604082013567ffffffffffffffff81111561203457600080fd5b61204084828501611f19565b604083015250606061205484828501611f03565b606083015250608082013567ffffffffffffffff81111561207457600080fd5b61208084828501611e77565b60808301525092915050565b60006020828403121561209e57600080fd5b6000610e5b8484611ef8565b6000602082840312156120bc57600080fd5b6000610e5b8484611f0e565b600080604083850312156120db57600080fd5b823567ffffffffffffffff8111156120f257600080fd5b6120fe85828601611f19565b925050602083013567ffffffffffffffff81111561211b57600080fd5b61212785828601611f19565b9150509250929050565b60006020828403121561214357600080fd5b6000610e5b8484611f03565b6000806040838503121561216257600080fd5b600061216e8585611f03565b925050602061212785828601611e6c565b6000806000806080858703121561219557600080fd5b60006121a18787611f03565b94505060206121b287828801611e6c565b935050604085013567ffffffffffffffff8111156121cf57600080fd5b6121db87828801611f19565b925050606085013567ffffffffffffffff8111156121f857600080fd5b61220487828801611f19565b91505092959194509250565b60008060006060848603121561222557600080fd5b60006122318686611f03565b935050602061224286828701611e6c565b925050604061225386828701611f03565b9150509250925092565b6000806040838503121561227057600080fd5b600061227c8585611f03565b925050602061212785828601611f03565b6000806000606084860312156122a257600080fd5b60006122ae8686611f03565b935050602061224286828701611f03565b600080604083850312156122d257600080fd5b823567ffffffffffffffff8111156122e957600080fd5b61227c85828601611fd9565b60006123018383612324565b505060200190565b600061230183836123d4565b61231e81612921565b82525050565b61231e816128fb565b6000612338826128ee565b61234281856128f2565b935061234d836128e8565b8060005b8381101561237b57815161236588826122f5565b9750612370836128e8565b925050600101612351565b509495945050505050565b6000612391826128ee565b61239b81856128f2565b93506123a6836128e8565b8060005b8381101561237b5781516123be8882612309565b97506123c9836128e8565b9250506001016123aa565b61231e81611e69565b60006123e8826128ee565b6123f281856128f2565b935061240281856020860161294e565b61240b8161297a565b9093019392505050565b6000612420826128ee565b61242a81856114bd565b935061243a81856020860161294e565b9290920192915050565b61231e8161292c565b600061245a6026836128f2565b7f4e6f7420656e6f75676820746f6b656e7320616c6c6f77656420666f722074728152600160d11b6530b739b332b902602082015260400192915050565b60006124a56015836128f2565b7f546f6b656e207472616e73666572206661696c65640000000000000000000000815260200192915050565b60006124de6015836128f2565b7f576f726b6572206e6f7420726567697374657265640000000000000000000000815260200192915050565b60006125176027836128f2565b7f5369676e657220646f6573206e6f74206d6174636820636f6e74656e7473206f8152600160c81b66662071756f746502602082015260400192915050565b6000612563601a836128f2565b7f566572696679696e67207369676e6174757265206661696c6564000000000000815260200192915050565b600061259c6027836128f2565b7f697376456e636c61766551756f7465426f6479206e6f7420666f756e6420696e8152600160ca1b66081c995c1bdc9d02602082015260400192915050565b60006125e86036836128f2565b7f4e6f20776f726b65727320706172616d657465727320656e74727920666f722081527f73706563696669656420626c6f636b206e756d62657200000000000000000000602082015260400192915050565b60006126476023836128f2565b7f4e6f7420656e6f75676820746f6b656e7320696e20776f726b65722062616c618152600160e81b626e636502602082015260400192915050565b805160608301906126938482612444565b5060208201516126a660208501826123d4565b5060408201516126b960408501826123d4565b50505050565b60006109358284612415565b604081016126d98285612315565b6109356020830184612324565b604081016126f48285612315565b61093560208301846123d4565b604081016126d98285612324565b6060810161271d8286612324565b61272a6020830185612324565b610e5b60408301846123d4565b604081016127458285612324565b8181036020830152610e5b81846123dd565b604081016126f48285612324565b60208082528101610935818461232d565b6020808252810161026e8161244d565b6020808252810161026e81612498565b6020808252810161026e816124d1565b6020808252810161026e8161250a565b6020808252810161026e81612556565b6020808252810161026e8161258f565b6020808252810161026e816125db565b6020808252810161026e8161263a565b6060810161026e8284612682565b6020810161026e82846123d4565b6060810161282082866123d4565b61272a60208301856123d4565b6080810161283b82876123d4565b61284860208301866123d4565b818103604083015261285a818561232d565b9050818103606083015261286e8184612386565b9695505050505050565b60405181810167ffffffffffffffff8111828210171561289757600080fd5b604052919050565b600067ffffffffffffffff8211156128b657600080fd5b5060209081020190565b600067ffffffffffffffff8211156128d757600080fd5b506020601f91909101601f19160190565b60200190565b5190565b90815260200190565b600061026e82612915565b151590565b806114bd81612984565b6001600160a01b031690565b600061026e82612937565b600061026e8261290b565b600061026e826128fb565b82818337506000910152565b60005b83811015612969578181015183820152602001612951565b838111156126b95750506000910152565b601f01601f191690565b6004811061298e57fe5b50565b61299a816128fb565b811461298e57600080fd5b61299a81612906565b61299a81611e69565b6004811061298e57600080fd5b6003811061298e57600080fdfe0000000000000000000000000000000000000000000000000000000000000000000000000000000000000000000000000000000000000000000000000000000000000000000000000000000000000000000000000000000000000000000000000000000000000000000000000000000000000000000000000000000000010001a97a2de0e66ea6147c9ee745ac0162686c7192099afc4b3f040fad6de093511d74e802f510d716038157dcaf84f4104bd3fed7e6b8f99c8817fd1ff5b9b864296c3d81fa8f1b729e02d21d72ffee4ced725efe74bea68fbc4d4244286fcdd4bf64406a439a15bcb4cf67754489c423972b4a80df5c2e7c5bc2dbaf2d42bb7b244f7c95bf92c75d3b33fc5410678a89589d1083da3acc459f2704cd99598c275e7c1878e00757e5bdb4e840226c11c0a17ff79c80b15c1ddb5af21cc2417061fbd2a2da819ed3b72b7efaa3bfebe2805c9b8ac19aa346512d484cfc81941e15f55881cc127e8f7aa12300cd5afb5742fa1d20cb467a5beb1c666cf76a368978b5a265627a7a7230582052aba93cb3ac691611aa784c86add43ec5555fa73ea6154f8c9cfeec9c170c056c6578706572696d656e74616cf50037",
  "source": "pragma solidity ^0.5.0;\npragma experimental ABIEncoderV2;\n\nimport \"openzeppelin-solidity/contracts/math/SafeMath.sol\";\n\nimport { EnigmaCommon } from \"./EnigmaCommon.sol\";\nimport { EnigmaState } from \"./EnigmaState.sol\";\nimport \"../utils/SolRsaVerify.sol\";\nimport \"../utils/Base64.sol\";\n\n/**\n * @author Enigma\n *\n * Library that maintains functionality associated with workers\n */\nlibrary WorkersImpl {\n    using SafeMath for uint256;\n\n    event Registered(address custodian, address signer);\n    event DepositSuccessful(address from, uint value);\n    event WithdrawSuccessful(address to, uint value);\n\n    uint constant internal WORD_SIZE = 32;\n\n    // Borrowed from https://github.com/ethereum/solidity-examples/blob/cb43c26d17617d7dad34936c34dd8f423453c1cf/src/unsafe/Memory.sol#L57\n    // Copy 'len' bytes from memory address 'src', to address 'dest'.\n    // This function does not check the or destination, it only copies\n    // the bytes.\n    function copy(uint src, uint dest, uint len) internal pure {\n        // Copy word-length chunks while possible\n        for (; len >= WORD_SIZE; len -= WORD_SIZE) {\n            assembly {\n                mstore(dest, mload(src))\n            }\n            dest += WORD_SIZE;\n            src += WORD_SIZE;\n        }\n\n        // Copy remaining bytes\n        uint mask = 256 ** (WORD_SIZE - len) - 1;\n        assembly {\n            let srcpart := and(mload(src), not(mask))\n            let destpart := and(mload(dest), mask)\n            mstore(dest, or(destpart, srcpart))\n        }\n    }\n\n    function extract_element(bytes memory src, uint offset, uint len) internal pure returns (bytes memory) {\n        bytes memory o = new bytes(len);\n        uint srcptr;\n        uint destptr;\n        assembly{\n            srcptr := add(add(src,32), offset)\n            destptr := add(o,32)\n        }\n        copy(srcptr, destptr, len);\n        return o;\n    }\n\n    // Borrowed from https://ethereum.stackexchange.com/a/50528/24704\n    function bytesToAddress(bytes memory bys) internal pure returns (address addr) {\n        assembly {\n          addr := mload(add(bys,20))\n        }\n    }\n\n    function registerImpl(EnigmaState.State storage state, address _signer, bytes memory _report,\n        bytes memory _signature)\n    public {\n        // TODO: consider exit if both signer and custodian are matching\n        // If the custodian is not already register, we add an index entry\n        EnigmaCommon.Worker storage worker = state.workers[msg.sender];\n        if (worker.signer == address(0)) {\n            state.workerAddresses.push(msg.sender);\n        }\n        require(verifyReportImpl(_report, _signature) == 0, \"Verifying signature failed\");\n\n        uint i = 0;\n        // find the word \"Body\" in the _report\n        while( i < _report.length && !(\n            _report[i] == 0x42 &&\n            _report[i+1] == 0x6f &&\n            _report[i+2] == 0x64 &&\n            _report[i+3] == 0x79\n        )) {\n            i++;\n        }\n        require( i < _report.length, \"isvEnclaveQuoteBody not found in report\");\n\n        // Add the length of 'Body\":\"'' to find where the quote starts\n        i=i+7;\n\n        // 576 bytes is the length of the quote\n        bytes memory quoteBody = extract_element(_report, i, 576);\n\n        bytes memory quoteDecoded = Base64.decode(quoteBody);\n\n        // extract the needed fields. For reference see, pages 21-23\n        // https://software.intel.com/sites/default/files/managed/7e/3b/ias-api-spec.pdf\n        // bytes memory cpuSvn = extract_element(quoteDecoded, 48, 16);\n        // bytes memory mrEnclave = extract_element(quoteDecoded, 112, 32);\n        // bytes memory mrSigner = extract_element(quoteDecoded, 176, 32);\n        // bytes memory isvSvn = extract_element(quoteDecoded, 306, 2);\n        bytes memory reportData = extract_element(quoteDecoded, 368, 64);\n        address signerQuote = bytesToAddress(reportData);\n\n        require(signerQuote == _signer, \"Signer does not match contents of quote\");\n\n        worker.signer = _signer;\n        worker.report = _report;\n        worker.status = EnigmaCommon.WorkerStatus.LoggedOut;\n\n        emit Registered(msg.sender, _signer);\n    }\n\n    function getReportImpl(EnigmaState.State storage state, address _custodian)\n    public\n    view\n    returns (address, bytes memory)\n    {\n        EnigmaCommon.Worker memory worker = state.workers[_custodian];\n        // The RLP encoded report and signer's address for the specified worker\n        require(worker.signer != address(0), \"Worker not registered\");\n        return (worker.signer, worker.report);\n    }\n\n    function verifyReportImpl(bytes memory _data, bytes memory _signature)\n    public\n    view\n    returns (uint) {\n        /*\n        this is the modulus and the exponent of intel's certificate, you can extract it using:\n        `openssl x509 -noout -modulus -in intel.cert`\n        and `openssl x509 -in intel.cert  -text`\n        */\n        bytes memory exponent = hex\"0000000000000000000000000000000000000000000000000000000000000000000000000000000000000000000000000000000000000000000000000000000000000000000000000000000000000000000000000000000000000000000000000000000000000000000000000000000000000000000000000000000000010001\";\n        bytes memory modulus = hex\"A97A2DE0E66EA6147C9EE745AC0162686C7192099AFC4B3F040FAD6DE093511D74E802F510D716038157DCAF84F4104BD3FED7E6B8F99C8817FD1FF5B9B864296C3D81FA8F1B729E02D21D72FFEE4CED725EFE74BEA68FBC4D4244286FCDD4BF64406A439A15BCB4CF67754489C423972B4A80DF5C2E7C5BC2DBAF2D42BB7B244F7C95BF92C75D3B33FC5410678A89589D1083DA3ACC459F2704CD99598C275E7C1878E00757E5BDB4E840226C11C0A17FF79C80B15C1DDB5AF21CC2417061FBD2A2DA819ED3B72B7EFAA3BFEBE2805C9B8AC19AA346512D484CFC81941E15F55881CC127E8F7AA12300CD5AFB5742FA1D20CB467A5BEB1C666CF76A368978B5\";\n\n        return SolRsaVerify.pkcs1Sha256VerifyRaw(_data, _signature, exponent, modulus);\n    }\n\n    function loginImpl(EnigmaState.State storage state) public {\n        EnigmaCommon.Worker storage worker = state.workers[msg.sender];\n        worker.status = EnigmaCommon.WorkerStatus.LoggedIn;\n        worker.workerLogs.push(EnigmaCommon.WorkerLog({\n            workerEventType: EnigmaCommon.WorkerLogType.LogIn,\n            blockNumber: block.number,\n            balance: worker.balance\n        }));\n    }\n\n    function logoutImpl(EnigmaState.State storage state) public {\n        EnigmaCommon.Worker storage worker = state.workers[msg.sender];\n        worker.status = EnigmaCommon.WorkerStatus.LoggedOut;\n        worker.workerLogs.push(EnigmaCommon.WorkerLog({\n            workerEventType: EnigmaCommon.WorkerLogType.LogOut,\n            blockNumber: block.number,\n            balance: worker.balance\n        }));\n    }\n\n    function depositImpl(EnigmaState.State storage state, address _custodian, uint _amount)\n    public\n    {\n        require(state.engToken.allowance(_custodian, address(this)) >= _amount, \"Not enough tokens allowed for transfer\");\n        require(state.engToken.transferFrom(_custodian, address(this), _amount), \"Token transfer failed\");\n\n        EnigmaCommon.Worker storage worker = state.workers[_custodian];\n        worker.balance = worker.balance.add(_amount);\n\n        emit DepositSuccessful(_custodian, _amount);\n    }\n\n    function withdrawImpl(EnigmaState.State storage state, uint _amount)\n    public\n    {\n        EnigmaCommon.Worker storage worker = state.workers[msg.sender];\n        require(worker.balance >= _amount, \"Not enough tokens in worker balance\");\n        require(state.engToken.transfer(msg.sender, _amount), \"Token transfer failed\");\n\n        worker.balance = worker.balance.sub(_amount);\n\n        emit WithdrawSuccessful(msg.sender, _amount);\n    }\n\n    function getWorkerParamsIndex(EnigmaState.State storage state, uint _blockNumber)\n    internal\n    view\n    returns (uint)\n    {\n        // The workers parameters for a given block number\n        int8 index = - 1;\n        for (uint i = 0; i < state.workersParams.length; i++) {\n            if (state.workersParams[i].firstBlockNumber <= _blockNumber &&\n                (index == - 1 ||\n                state.workersParams[i].firstBlockNumber > state.workersParams[uint(index)].firstBlockNumber)) {\n                index = int8(i);\n            }\n        }\n        require(index != - 1, \"No workers parameters entry for specified block number\");\n        return uint(index);\n    }\n\n    function getParams(EnigmaState.State storage state, uint _blockNumber)\n    internal\n    view\n    returns (EnigmaCommon.WorkersParams memory) {\n        uint index = getWorkerParamsIndex(state, _blockNumber);\n        return state.workersParams[index];\n    }\n\n    function getFirstBlockNumberImpl(EnigmaState.State storage state, uint _blockNumber)\n    public\n    view\n    returns (uint) {\n        EnigmaCommon.WorkersParams memory params = getParams(state, _blockNumber);\n        return params.firstBlockNumber;\n    }\n\n    function getWorkerParamsImpl(EnigmaState.State storage state, uint _blockNumber)\n    public\n    view\n    returns (uint, uint, address[] memory, uint[] memory) {\n        EnigmaCommon.WorkersParams memory params = getParams(state, _blockNumber);\n        return (params.firstBlockNumber, params.seed, params.workers, params.stakes);\n    }\n\n    function selectWeightedRandomWorker(EnigmaState.State storage state, uint _paramIndex, bytes32 _scAddr, uint _nonce)\n    internal\n    view\n    returns (address)\n    {\n        EnigmaCommon.WorkersParams memory params = state.workersParams[_paramIndex];\n        uint tokenCpt = 0;\n        for (uint i = 0; i < params.workers.length; i++) {\n            if (params.workers[i] != address(0)) {\n                tokenCpt = tokenCpt.add(params.stakes[i]);\n            }\n        }\n        bytes32 randHash = keccak256(abi.encode(params.seed, _scAddr, _nonce));\n        int randVal = int256(uint256(randHash) % tokenCpt);\n        for (uint k = 0; k < params.workers.length; k++) {\n            if (params.workers[k] != address(0)) {\n                randVal -= int256(params.stakes[k]);\n                if (randVal <= 0) {\n                    return params.workers[k];\n                }\n            }\n        }\n        return params.workers[params.workers.length - 1];\n    }\n\n    function getWorkerGroupImpl(EnigmaState.State storage state, uint _blockNumber, bytes32 _scAddr)\n    public\n    view\n    returns (address[] memory)\n    {\n        // Compile a list of selected workers for the block number and\n        // secret contract.\n        uint paramIndex = getWorkerParamsIndex(state, _blockNumber);\n        uint fullWorkerGroupSize = state.workersParams[paramIndex].workers.length;\n        uint workerGroupSize = fullWorkerGroupSize < state.workerGroupSize ? fullWorkerGroupSize : state.workerGroupSize;\n\n        address[] memory selectedWorkers = new address[](workerGroupSize);\n        uint nonce = 0;\n        for (uint it = 0; it < workerGroupSize; it++) {\n            do {\n                address worker = selectWeightedRandomWorker(state, paramIndex, _scAddr, nonce);\n                bool dup = false;\n                for (uint id = 0; id < selectedWorkers.length; id++) {\n                    if (worker == selectedWorkers[id]) {\n                        dup = true;\n                        break;\n                    }\n                }\n                if (dup == false) {\n                    selectedWorkers[it] = worker;\n                }\n                nonce++;\n            }\n            while (selectedWorkers[it] == address(0));\n        }\n        return selectedWorkers;\n    }\n\n    function getLatestWorkerLogImpl(EnigmaCommon.Worker memory worker, uint _blockNumber)\n    public\n    pure\n    returns (EnigmaCommon.WorkerLog memory) {\n        EnigmaCommon.WorkerLog memory workerLog;\n        for (uint i = worker.workerLogs.length; i > 0; i--) {\n            if (worker.workerLogs[i - 1].blockNumber < _blockNumber) {\n                workerLog = worker.workerLogs[i - 1];\n                break;\n            }\n        }\n        return workerLog;\n    }\n}\n",
  "sourcePath": "/root/enigma-contract/contracts/impl/WorkersImpl.sol",
  "compiler": {
    "name": "solc",
    "version": "0.5.8+commit.23d335f2.Emscripten.clang"
  },
  "schemaVersion": "3.0.11",
  "updatedAt": "2019-08-16T22:26:20.455Z",
  "devdoc": {
    "author": "Enigma * Library that maintains functionality associated with workers",
    "methods": {}
  },
  "userdoc": {
    "methods": {}
  }
}