{
  "contractName": "WorkersImplSimulation",
  "abi": [
    {
      "anonymous": false,
      "inputs": [
        {
          "indexed": false,
          "name": "custodian",
          "type": "address"
        },
        {
          "indexed": false,
          "name": "signer",
          "type": "address"
        }
      ],
      "name": "Registered",
      "type": "event"
    },
    {
      "anonymous": false,
      "inputs": [
        {
          "indexed": false,
          "name": "from",
          "type": "address"
        },
        {
          "indexed": false,
          "name": "value",
          "type": "uint256"
        }
      ],
      "name": "DepositSuccessful",
      "type": "event"
    },
    {
      "anonymous": false,
      "inputs": [
        {
          "indexed": false,
          "name": "to",
          "type": "address"
        },
        {
          "indexed": false,
          "name": "value",
          "type": "uint256"
        }
      ],
      "name": "WithdrawSuccessful",
      "type": "event"
    },
    {
      "constant": true,
      "inputs": [
        {
          "name": "_data",
          "type": "bytes"
        },
        {
          "name": "_signature",
          "type": "bytes"
        }
      ],
      "name": "verifyReportImpl",
      "outputs": [
        {
          "name": "",
          "type": "uint256"
        }
      ],
      "payable": false,
      "stateMutability": "view",
      "type": "function"
    },
    {
      "constant": true,
      "inputs": [
        {
          "components": [
            {
              "name": "signer",
              "type": "address"
            },
            {
              "name": "status",
              "type": "EnigmaCommon.WorkerStatus"
            },
            {
              "name": "report",
              "type": "bytes"
            },
            {
              "name": "balance",
              "type": "uint256"
            },
            {
              "components": [
                {
                  "name": "workerEventType",
                  "type": "EnigmaCommon.WorkerLogType"
                },
                {
                  "name": "blockNumber",
                  "type": "uint256"
                },
                {
                  "name": "balance",
                  "type": "uint256"
                }
              ],
              "name": "workerLogs",
              "type": "tuple[]"
            }
          ],
          "name": "worker",
          "type": "tuple"
        },
        {
          "name": "_blockNumber",
          "type": "uint256"
        }
      ],
      "name": "getLatestWorkerLogImpl",
      "outputs": [
        {
          "components": [
            {
              "name": "workerEventType",
              "type": "EnigmaCommon.WorkerLogType"
            },
            {
              "name": "blockNumber",
              "type": "uint256"
            },
            {
              "name": "balance",
              "type": "uint256"
            }
          ],
          "name": "",
          "type": "tuple"
        }
      ],
      "payable": false,
      "stateMutability": "pure",
      "type": "function"
    }
  ],
  "bytecode": "0x612151610026600b82828239805160001a60731461001957fe5b30600052607381538281f3fe73000000000000000000000000000000000000000030146080604052600436106100b35760003560e01c806349e44f491161007b57806349e44f49146101675780639646236814610187578063a378cd841461019a578063bbd5bf7a146101ba578063bf6df464146101da578063c7d11e20146101fa576100b3565b8063198cc4cb146100b857806326ae0898146100e45780632f68f031146101045780633151b8e2146101255780633a0120c414610147575b600080fd5b6100cb6100c636600461191f565b61021a565b6040516100db9493929190611dee565b60405180910390f35b6100f76100f236600461191f565b610255565b6040516100db9190611dc5565b610117610112366004611811565b610274565b6040516100db929190611d28565b81801561013157600080fd5b506101456101403660046117f3565b61046d565b005b81801561015357600080fd5b506101456101623660046118d2565b610519565b81801561017357600080fd5b506101456101823660046117f3565b6106d9565b6100f761019536600461178a565b610717565b6101ad6101a8366004611981565b61076b565b6040516100db9190611db7565b6101cd6101c836600461194f565b6107e1565b6040516100db9190611d56565b8180156101e657600080fd5b506101456101f536600461191f565b61093c565b81801561020657600080fd5b50610145610215366004611841565b610a72565b6000806060806102286113fa565b6102328787610b3e565b805160608201516020830151604090930151919a90995091975095509350505050565b600061025f6113fa565b6102698484610b3e565b519150505b92915050565b60006060610280611422565b6001600160a01b038481166000908152601a87016020908152604091829020825160a0810190935280549384168352919290830190600160a01b900460ff1660028111156102ca57fe5b60028111156102d557fe5b8152602001600182018054600181600116156101000203166002900480601f0160208091040260200160405190810160405280929190818152602001828054600181600116156101000203166002900480156103725780601f1061034757610100808354040283529160200191610372565b820191906000526020600020905b81548152906001019060200180831161035557829003601f168201915b505050505081526020016002820154815260200160038201805480602002602001604051908101604052809291908181526020016000905b8282101561041d57838290600052602060002090600302016040518060600160405290816000820160009054906101000a900460ff1660038111156103eb57fe5b60038111156103f657fe5b815260200160018201548152602001600282015481525050815260200190600101906103aa565b5050509152505080519091506001600160a01b031661045a57604051600160e51b62461bcd02815260040161045190611d87565b60405180910390fd5b8051604090910151909590945092505050565b336000908152601a82016020526040908190208054600160a01b60ff021916600160a01b1781558151606081019092529060038201908060015b815243602080830191909152600285015460409092019190915282546001818101808655600095865292909420835160039283029091018054939590939192849260ff1916919084908111156104f957fe5b021790555060208201518160010155604082015181600201555050505050565b8254604051600160e11b636eb1769f02815282916001600160a01b03169063dd62ed3e9061054d9086903090600401611cf2565b60206040518083038186803b15801561056557600080fd5b505afa158015610579573d6000803e3d6000fd5b505050506040513d601f19601f8201168201806040525061059d919081019061176c565b10156105be57604051600160e51b62461bcd02815260040161045190611d67565b8254604051600160e01b6323b872dd0281526001600160a01b03909116906323b872dd906105f490859030908690600401611d00565b602060405180830381600087803b15801561060e57600080fd5b505af1158015610622573d6000803e3d6000fd5b505050506040513d601f19601f82011682018060405250610646919081019061174e565b61066557604051600160e51b62461bcd02815260040161045190611d77565b6001600160a01b0382166000908152601a8401602052604090206002810154610694908363ffffffff610c4916565b60028201556040517fb3ef81558ed1a50072a492984535a009da8b129c749500b387f1e5f4886bdde5906106cb9085908590611d48565b60405180910390a150505050565b336000908152601a82016020526040908190208054600160a01b60ff021916600160a11b1781558151606081019092529060038201908060026104a7565b600060606040518060a0016040528060808152602001611f98608091399050606060405180610120016040528061010081526020016120186101009139905061076285858484610c5b565b95945050505050565b610773611452565b61077b611452565b6080840151515b80156107d957838560800151600183038151811061079c57fe5b60200260200101516020015110156107d057846080015160018203815181106107c157fe5b602002602001015191506107d9565b60001901610782565b509392505050565b606060006107ef8585610cc3565b9050600085600401826005811061080257fe5b60040201600101805490509050600086601f015482106108265786601f0154610828565b815b9050606081604051908082528060200260200182016040528015610856578160200160208202803883390190505b5090506000805b8381101561092c575b60006108748b888b86610d73565b90506000805b85518110156108c15785818151811061088f57fe5b60200260200101516001600160a01b0316836001600160a01b031614156108b957600191506108c1565b60010161087a565b50806108f557818584815181106108d457fe5b60200260200101906001600160a01b031690816001600160a01b0316815250505b5050825160019092019160009084908390811061090e57fe5b60200260200101516001600160a01b0316146108665760010161085d565b50909450505050505b9392505050565b336000908152601a830160205260409020600281015482111561097457604051600160e51b62461bcd02815260040161045190611da7565b8254604051600160e01b63a9059cbb0281526001600160a01b039091169063a9059cbb906109a89033908690600401611cd7565b602060405180830381600087803b1580156109c257600080fd5b505af11580156109d6573d6000803e3d6000fd5b505050506040513d601f19601f820116820180604052506109fa919081019061174e565b610a1957604051600160e51b62461bcd02815260040161045190611d77565b6002810154610a2e908363ffffffff610fe616565b60028201556040517f84e742a3ea03623687a5febaa797636d728230721d4b3d1405d19fbbc16298d990610a659033908590611cd7565b60405180910390a1505050565b336000908152601a85016020526040902080546001600160a01b0316610aba57601885018054600181018255600091825260209091200180546001600160a01b031916331790555b80546001600160a01b0319166001600160a01b0385161781558251610ae89060018301906020860190611474565b508054600160a01b60ff021916600160a11b1781556040517f0a31ee9d46a828884b81003c8498156ea6aa15b9b54bdd0ef0b533d9eba57e5590610b2f9033908790611cbc565b60405180910390a15050505050565b610b466113fa565b6000610b528484610cc3565b9050836004018160058110610b6357fe5b600402016040518060800160405290816000820154815260200160018201805480602002602001604051908101604052809291908181526020018280548015610bd557602002820191906000526020600020905b81546001600160a01b03168152600190910190602001808311610bb7575b5050505050815260200160028201805480602002602001604051908101604052809291908181526020018280548015610c2d57602002820191906000526020600020905b815481526020019060010190808311610c19575b5050505050815260200160038201548152505091505092915050565b60008282018381101561093557600080fd5b6000610cb8600286604051610c709190611cb0565b602060405180830381855afa158015610c8d573d6000803e3d6000fd5b5050506040513d601f19601f82011682018060405250610cb0919081019061176c565b858585610ffb565b90505b949350505050565b6000600019815b6005811015610d405783856004018260058110610ce357fe5b600402015411801590610d2f57508160000b6000191480610d2f5750846004018260000b60058110610d1157fe5b6004020160000154856004018260058110610d2857fe5b6004020154115b15610d38578091505b600101610cca565b508060000b6000191415610d6957604051600160e51b62461bcd02815260040161045190611d97565b60000b9392505050565b6000610d7d6113fa565b856004018560058110610d8c57fe5b600402016040518060800160405290816000820154815260200160018201805480602002602001604051908101604052809291908181526020018280548015610dfe57602002820191906000526020600020905b81546001600160a01b03168152600190910190602001808311610de0575b5050505050815260200160028201805480602002602001604051908101604052809291908181526020018280548015610e5657602002820191906000526020600020905b815481526020019060010190808311610e42575b50505091835250506003919091015460209091015290506000805b826020015151811015610ee45760006001600160a01b031683602001518281518110610e9957fe5b60200260200101516001600160a01b031614610edc57610ed983604001518281518110610ec257fe5b602002602001015183610c4990919063ffffffff16565b91505b600101610e71565b50600082606001518686604051602001610f0093929190611dd3565b6040516020818303038152906040528051906020012090506000828260001c81610f2657fe5b06905060005b846020015151811015610fba5760006001600160a01b031685602001518281518110610f5457fe5b60200260200101516001600160a01b031614610fb25784604001518181518110610f7a57fe5b60200260200101518203915060008213610fb25784602001518181518110610f9e57fe5b602002602001015195505050505050610cbb565b600101610f2c565b50602084015180516000198101908110610fd057fe5b6020026020010151945050505050949350505050565b600082821115610ff557600080fd5b50900390565b60006110056114f2565b5060408051610260810182526030808252603160208084019190915292820152600d60608083019190915260066080830152600960a083015260c0820152608660e0820152604861010082015260016101208201819052606561014083015260036101608301526004610180830181905260026101a08401526101c083019190915260056101e083015260006102008301526102208201526102408101919091528251603e11156110b557600080fd5b600060606110c48787876112f3565b8051865160408051828152601f19601f840116810160200190915292935090916060908280156110fb576020820181803883390190505b5090508160208201846020870160056107d05a03fa508051603519830190829060009061112457fe5b01602001516001600160f81b031960f891821c90911b1615158061116657508160018151811061115057fe5b602001015160f81c60f81b60f81c60ff16600114155b1561117b576001975050505050505050610cbb565b600295505b806002018610156111d15781868151811061119757fe5b602001015160f81c60f81b6001600160f81b03191660ff60f81b146111c6576002975050505050505050610cbb565b600190950194611180565b8181600201815181106111e057fe5b01602001516001600160f81b031960f891821c90911b161561120c576003975050505050505050610cbb565b600095505b60138610156112705786866013811061122657fe5b602002015160ff16828783600301018151811061123f57fe5b602001015160f81c60f81b60f81c60ff1614611265576004975050505050505050610cbb565b600190950194611211565b600095505b60208610156112e1578b866020811061128a57fe5b1a60f81b6001600160f81b03191682876013846003010101815181106112ac57fe5b602001015160f81c60f81b6001600160f81b031916146112d6576005975050505050505050610cbb565b600190950194611275565b5060009b9a5050505050505050505050565b60606000825184518651606001010190506000855190506000855190506000855190506000806000806060886040519080825280601f01601f191660200182016040528015611349576020820181803883390190505b50905060208d01945060208c01935060208b01925087602082015286604082015285606082015260208101915061138582606001868f516113bc565b6113978d518360600101858e516113bc565b6113ac8c518e51846060010101848d516113bc565b9c9b505050505050505050505050565b5b602081106113dc578151835260209283019290910190601f19016113bd565b905182516020929092036101000a6000190180199091169116179052565b6040518060800160405280600081526020016060815260200160608152602001600081525090565b6040805160a081019091526000808252602082019081526020016060815260200160008152602001606081525090565b6040805160608101909152806000815260200160008152602001600081525090565b828054600181600116156101000203166002900490600052602060002090601f016020900481019282601f106114b557805160ff19168380011785556114e2565b828001600101855582156114e2579182015b828111156114e25782518255916020019190600101906114c7565b506114ee929150611511565b5090565b6040518061026001604052806013906020820280388339509192915050565b61152b91905b808211156114ee5760008155600101611517565b90565b803561026e81611f57565b600082601f83011261154a57600080fd5b813561155d61155882611e60565b611e39565b9150818183526020840193506020810190508385606084028201111561158257600080fd5b60005b838110156115b057816115988882611640565b84525060209092019160609190910190600101611585565b5050505092915050565b805161026e81611f6b565b803561026e81611f74565b805161026e81611f74565b600082601f8301126115ec57600080fd5b81356115fa61155882611e81565b9150808252602083016020830185838301111561161657600080fd5b611621838284611f08565b50505092915050565b803561026e81611f7d565b803561026e81611f8a565b60006060828403121561165257600080fd5b61165c6060611e39565b9050600061166a848461162a565b825250602061167b848483016115c5565b602083015250604061168f848285016115c5565b60408301525092915050565b600060a082840312156116ad57600080fd5b6116b760a0611e39565b905060006116c5848461152e565b82525060206116d684848301611635565b602083015250604082013567ffffffffffffffff8111156116f657600080fd5b611702848285016115db565b6040830152506060611716848285016115c5565b606083015250608082013567ffffffffffffffff81111561173657600080fd5b61174284828501611539565b60808301525092915050565b60006020828403121561176057600080fd5b6000610cbb84846115ba565b60006020828403121561177e57600080fd5b6000610cbb84846115d0565b6000806040838503121561179d57600080fd5b823567ffffffffffffffff8111156117b457600080fd5b6117c0858286016115db565b925050602083013567ffffffffffffffff8111156117dd57600080fd5b6117e9858286016115db565b9150509250929050565b60006020828403121561180557600080fd5b6000610cbb84846115c5565b6000806040838503121561182457600080fd5b600061183085856115c5565b92505060206117e98582860161152e565b6000806000806080858703121561185757600080fd5b600061186387876115c5565b94505060206118748782880161152e565b935050604085013567ffffffffffffffff81111561189157600080fd5b61189d878288016115db565b925050606085013567ffffffffffffffff8111156118ba57600080fd5b6118c6878288016115db565b91505092959194509250565b6000806000606084860312156118e757600080fd5b60006118f386866115c5565b93505060206119048682870161152e565b9250506040611915868287016115c5565b9150509250925092565b6000806040838503121561193257600080fd5b600061193e85856115c5565b92505060206117e9858286016115c5565b60008060006060848603121561196457600080fd5b600061197086866115c5565b9350506020611904868287016115c5565b6000806040838503121561199457600080fd5b823567ffffffffffffffff8111156119ab57600080fd5b61193e8582860161169b565b60006119c383836119e6565b505060200190565b60006119c38383611a96565b6119e081611ee7565b82525050565b6119e081611ec1565b60006119fa82611eaf565b611a048185611eb3565b9350611a0f83611ea9565b8060005b83811015611a3d578151611a2788826119b7565b9750611a3283611ea9565b925050600101611a13565b509495945050505050565b6000611a5382611eaf565b611a5d8185611eb3565b9350611a6883611ea9565b8060005b83811015611a3d578151611a8088826119cb565b9750611a8b83611ea9565b925050600101611a6c565b6119e08161152b565b6000611aaa82611eaf565b611ab48185611eb3565b9350611ac4818560208601611f14565b611acd81611f40565b9093019392505050565b6000611ae282611eaf565b611aec8185611ebc565b9350611afc818560208601611f14565b9290920192915050565b6119e081611ef2565b6000611b1c602683611eb3565b7f4e6f7420656e6f75676820746f6b656e7320616c6c6f77656420666f722074728152600160d11b6530b739b332b902602082015260400192915050565b6000611b67601583611eb3565b7f546f6b656e207472616e73666572206661696c65640000000000000000000000815260200192915050565b6000611ba0601583611eb3565b7f576f726b6572206e6f7420726567697374657265640000000000000000000000815260200192915050565b6000611bd9603683611eb3565b7f4e6f20776f726b65727320706172616d657465727320656e74727920666f722081527f73706563696669656420626c6f636b206e756d62657200000000000000000000602082015260400192915050565b6000611c38602383611eb3565b7f4e6f7420656e6f75676820746f6b656e7320696e20776f726b65722062616c618152600160e81b626e636502602082015260400192915050565b80516060830190611c848482611b06565b506020820151611c976020850182611a96565b506040820151611caa6040850182611a96565b50505050565b60006109358284611ad7565b60408101611cca82856119d7565b61093560208301846119e6565b60408101611ce582856119d7565b6109356020830184611a96565b60408101611cca82856119e6565b60608101611d0e82866119e6565b611d1b60208301856119e6565b610cbb6040830184611a96565b60408101611d3682856119e6565b8181036020830152610cbb8184611a9f565b60408101611ce582856119e6565b6020808252810161093581846119ef565b6020808252810161026e81611b0f565b6020808252810161026e81611b5a565b6020808252810161026e81611b93565b6020808252810161026e81611bcc565b6020808252810161026e81611c2b565b6060810161026e8284611c73565b6020810161026e8284611a96565b60608101611de18286611a96565b611d1b6020830185611a96565b60808101611dfc8287611a96565b611e096020830186611a96565b8181036040830152611e1b81856119ef565b90508181036060830152611e2f8184611a48565b9695505050505050565b60405181810167ffffffffffffffff81118282101715611e5857600080fd5b604052919050565b600067ffffffffffffffff821115611e7757600080fd5b5060209081020190565b600067ffffffffffffffff821115611e9857600080fd5b506020601f91909101601f19160190565b60200190565b5190565b90815260200190565b919050565b600061026e82611edb565b151590565b80611ebc81611f4a565b6001600160a01b031690565b600061026e82611efd565b600061026e82611ed1565b600061026e82611ec1565b82818337506000910152565b60005b83811015611f2f578181015183820152602001611f17565b83811115611caa5750506000910152565b601f01601f191690565b60048110611f5457fe5b50565b611f6081611ec1565b8114611f5457600080fd5b611f6081611ecc565b611f608161152b565b60048110611f5457600080fd5b60038110611f5457600080fdfe0000000000000000000000000000000000000000000000000000000000000000000000000000000000000000000000000000000000000000000000000000000000000000000000000000000000000000000000000000000000000000000000000000000000000000000000000000000000000000000000000000000000010001a97a2de0e66ea6147c9ee745ac0162686c7192099afc4b3f040fad6de093511d74e802f510d716038157dcaf84f4104bd3fed7e6b8f99c8817fd1ff5b9b864296c3d81fa8f1b729e02d21d72ffee4ced725efe74bea68fbc4d4244286fcdd4bf64406a439a15bcb4cf67754489c423972b4a80df5c2e7c5bc2dbaf2d42bb7b244f7c95bf92c75d3b33fc5410678a89589d1083da3acc459f2704cd99598c275e7c1878e00757e5bdb4e840226c11c0a17ff79c80b15c1ddb5af21cc2417061fbd2a2da819ed3b72b7efaa3bfebe2805c9b8ac19aa346512d484cfc81941e15f55881cc127e8f7aa12300cd5afb5742fa1d20cb467a5beb1c666cf76a368978b5a265627a7a723058201eb07185cfe3e23d6722795eaa19022bdd976e8965ac7af2f172cefc6f68dd456c6578706572696d656e74616cf50037",
  "source": "pragma solidity ^0.5.0;\npragma experimental ABIEncoderV2;\n\nimport \"openzeppelin-solidity/contracts/math/SafeMath.sol\";\n\nimport { EnigmaCommon } from \"./EnigmaCommon.sol\";\nimport { EnigmaState } from \"./EnigmaState.sol\";\nimport \"../utils/SolRsaVerify.sol\";\nimport \"../utils/Base64.sol\";\n\n/**\n * @author Enigma\n *\n * Library that maintains functionality associated with workers\n */\nlibrary WorkersImplSimulation {\n    using SafeMath for uint256;\n\n    event Registered(address custodian, address signer);\n    event DepositSuccessful(address from, uint value);\n    event WithdrawSuccessful(address to, uint value);\n\n    uint constant internal WORD_SIZE = 32;\n\n    // Borrowed from https://github.com/ethereum/solidity-examples/blob/cb43c26d17617d7dad34936c34dd8f423453c1cf/src/unsafe/Memory.sol#L57\n    // Copy 'len' bytes from memory address 'src', to address 'dest'.\n    // This function does not check the or destination, it only copies\n    // the bytes.\n    function copy(uint src, uint dest, uint len) internal pure {\n        // Copy word-length chunks while possible\n        for (; len >= WORD_SIZE; len -= WORD_SIZE) {\n            assembly {\n                mstore(dest, mload(src))\n            }\n            dest += WORD_SIZE;\n            src += WORD_SIZE;\n        }\n\n        // Copy remaining bytes\n        uint mask = 256 ** (WORD_SIZE - len) - 1;\n        assembly {\n            let srcpart := and(mload(src), not(mask))\n            let destpart := and(mload(dest), mask)\n            mstore(dest, or(destpart, srcpart))\n        }\n    }\n\n    function extract_element(bytes memory src, uint offset, uint len) internal pure returns (bytes memory) {\n        bytes memory o = new bytes(len);\n        uint srcptr;\n        uint destptr;\n        assembly{\n            srcptr := add(add(src,32), offset)\n            destptr := add(o,32)\n        }\n        copy(srcptr, destptr, len);\n        return o;\n    }\n\n    // Borrowed from https://ethereum.stackexchange.com/a/50528/24704\n    function bytesToAddress(bytes memory bys) internal pure returns (address addr) {\n        assembly {\n          addr := mload(add(bys,20))\n        }\n    }\n\n    function registerImpl(EnigmaState.State storage state, address _signer, bytes memory _report,\n        bytes memory _signature)\n    public {\n        // TODO: consider exit if both signer and custodian are matching\n        // If the custodian is not already register, we add an index entry\n        EnigmaCommon.Worker storage worker = state.workers[msg.sender];\n        if (worker.signer == address(0)) {\n            state.workerAddresses.push(msg.sender);\n        }\n//        require(verifyReportImpl(_report, _signature) == 0, \"Verifying signature failed\");\n//\n//        uint i = 0;\n//        // find the word \"Body\" in the _report\n//        while( i < _report.length && !(\n//            _report[i] == 0x42 &&\n//            _report[i+1] == 0x6f &&\n//            _report[i+2] == 0x64 &&\n//            _report[i+3] == 0x79\n//        )) {\n//            i++;\n//        }\n//        require( i < _report.length, \"isvEnclaveQuoteBody not found in report\");\n//\n//        // Add the length of 'Body\":\"'' to find where the quote starts\n//        i=i+7;\n//\n//        // 576 bytes is the length of the quote\n//        bytes memory quoteBody = extract_element(_report, i, 576);\n//\n//        bytes memory quoteDecoded = Base64.decode(quoteBody);\n//\n//        // extract the needed fields. For reference see, pages 21-23\n//        // https://software.intel.com/sites/default/files/managed/7e/3b/ias-api-spec.pdf\n//        // bytes memory cpuSvn = extract_element(quoteDecoded, 48, 16);\n//        // bytes memory mrEnclave = extract_element(quoteDecoded, 112, 32);\n//        // bytes memory mrSigner = extract_element(quoteDecoded, 176, 32);\n//        // bytes memory isvSvn = extract_element(quoteDecoded, 306, 2);\n//        bytes memory reportData = extract_element(quoteDecoded, 368, 64);\n//        address signerQuote = bytesToAddress(reportData);\n//\n//        require(signerQuote == _signer, \"Signer does not match contents of quote\");\n\n        worker.signer = _signer;\n        worker.report = _report;\n        worker.status = EnigmaCommon.WorkerStatus.LoggedOut;\n\n        emit Registered(msg.sender, _signer);\n    }\n\n    function getReportImpl(EnigmaState.State storage state, address _custodian)\n    public\n    view\n    returns (address, bytes memory)\n    {\n        EnigmaCommon.Worker memory worker = state.workers[_custodian];\n        // The RLP encoded report and signer's address for the specified worker\n        require(worker.signer != address(0), \"Worker not registered\");\n        return (worker.signer, worker.report);\n    }\n\n    function verifyReportImpl(bytes memory _data, bytes memory _signature)\n    public\n    view\n    returns (uint) {\n        /*\n        this is the modulus and the exponent of intel's certificate, you can extract it using:\n        `openssl x509 -noout -modulus -in intel.cert`\n        and `openssl x509 -in intel.cert  -text`\n        */\n        bytes memory exponent = hex\"0000000000000000000000000000000000000000000000000000000000000000000000000000000000000000000000000000000000000000000000000000000000000000000000000000000000000000000000000000000000000000000000000000000000000000000000000000000000000000000000000000000000010001\";\n        bytes memory modulus = hex\"A97A2DE0E66EA6147C9EE745AC0162686C7192099AFC4B3F040FAD6DE093511D74E802F510D716038157DCAF84F4104BD3FED7E6B8F99C8817FD1FF5B9B864296C3D81FA8F1B729E02D21D72FFEE4CED725EFE74BEA68FBC4D4244286FCDD4BF64406A439A15BCB4CF67754489C423972B4A80DF5C2E7C5BC2DBAF2D42BB7B244F7C95BF92C75D3B33FC5410678A89589D1083DA3ACC459F2704CD99598C275E7C1878E00757E5BDB4E840226C11C0A17FF79C80B15C1DDB5AF21CC2417061FBD2A2DA819ED3B72B7EFAA3BFEBE2805C9B8AC19AA346512D484CFC81941E15F55881CC127E8F7AA12300CD5AFB5742FA1D20CB467A5BEB1C666CF76A368978B5\";\n\n        return SolRsaVerify.pkcs1Sha256VerifyRaw(_data, _signature, exponent, modulus);\n    }\n\n    function loginImpl(EnigmaState.State storage state) public {\n        EnigmaCommon.Worker storage worker = state.workers[msg.sender];\n        worker.status = EnigmaCommon.WorkerStatus.LoggedIn;\n        worker.workerLogs.push(EnigmaCommon.WorkerLog({\n            workerEventType: EnigmaCommon.WorkerLogType.LogIn,\n            blockNumber: block.number,\n            balance: worker.balance\n        }));\n    }\n\n    function logoutImpl(EnigmaState.State storage state) public {\n        EnigmaCommon.Worker storage worker = state.workers[msg.sender];\n        worker.status = EnigmaCommon.WorkerStatus.LoggedOut;\n        worker.workerLogs.push(EnigmaCommon.WorkerLog({\n            workerEventType: EnigmaCommon.WorkerLogType.LogOut,\n            blockNumber: block.number,\n            balance: worker.balance\n        }));\n    }\n\n    function depositImpl(EnigmaState.State storage state, address _custodian, uint _amount)\n    public\n    {\n        require(state.engToken.allowance(_custodian, address(this)) >= _amount, \"Not enough tokens allowed for transfer\");\n        require(state.engToken.transferFrom(_custodian, address(this), _amount), \"Token transfer failed\");\n\n        EnigmaCommon.Worker storage worker = state.workers[_custodian];\n        worker.balance = worker.balance.add(_amount);\n\n        emit DepositSuccessful(_custodian, _amount);\n    }\n\n    function withdrawImpl(EnigmaState.State storage state, uint _amount)\n    public\n    {\n        EnigmaCommon.Worker storage worker = state.workers[msg.sender];\n        require(worker.balance >= _amount, \"Not enough tokens in worker balance\");\n        require(state.engToken.transfer(msg.sender, _amount), \"Token transfer failed\");\n\n        worker.balance = worker.balance.sub(_amount);\n\n        emit WithdrawSuccessful(msg.sender, _amount);\n    }\n\n    function getWorkerParamsIndex(EnigmaState.State storage state, uint _blockNumber)\n    internal\n    view\n    returns (uint)\n    {\n        // The workers parameters for a given block number\n        int8 index = - 1;\n        for (uint i = 0; i < state.workersParams.length; i++) {\n            if (state.workersParams[i].firstBlockNumber <= _blockNumber &&\n                (index == - 1 ||\n                state.workersParams[i].firstBlockNumber > state.workersParams[uint(index)].firstBlockNumber)) {\n                index = int8(i);\n            }\n        }\n        require(index != - 1, \"No workers parameters entry for specified block number\");\n        return uint(index);\n    }\n\n    function getParams(EnigmaState.State storage state, uint _blockNumber)\n    internal\n    view\n    returns (EnigmaCommon.WorkersParams memory) {\n        uint index = getWorkerParamsIndex(state, _blockNumber);\n        return state.workersParams[index];\n    }\n\n    function getFirstBlockNumberImpl(EnigmaState.State storage state, uint _blockNumber)\n    public\n    view\n    returns (uint) {\n        EnigmaCommon.WorkersParams memory params = getParams(state, _blockNumber);\n        return params.firstBlockNumber;\n    }\n\n    function getWorkerParamsImpl(EnigmaState.State storage state, uint _blockNumber)\n    public\n    view\n    returns (uint, uint, address[] memory, uint[] memory) {\n        EnigmaCommon.WorkersParams memory params = getParams(state, _blockNumber);\n        return (params.firstBlockNumber, params.seed, params.workers, params.stakes);\n    }\n\n    function selectWeightedRandomWorker(EnigmaState.State storage state, uint _paramIndex, bytes32 _scAddr, uint _nonce)\n    internal\n    view\n    returns (address)\n    {\n        EnigmaCommon.WorkersParams memory params = state.workersParams[_paramIndex];\n        uint tokenCpt = 0;\n        for (uint i = 0; i < params.workers.length; i++) {\n            if (params.workers[i] != address(0)) {\n                tokenCpt = tokenCpt.add(params.stakes[i]);\n            }\n        }\n        bytes32 randHash = keccak256(abi.encode(params.seed, _scAddr, _nonce));\n        int randVal = int256(uint256(randHash) % tokenCpt);\n        for (uint k = 0; k < params.workers.length; k++) {\n            if (params.workers[k] != address(0)) {\n                randVal -= int256(params.stakes[k]);\n                if (randVal <= 0) {\n                    return params.workers[k];\n                }\n            }\n        }\n        return params.workers[params.workers.length - 1];\n    }\n\n    function getWorkerGroupImpl(EnigmaState.State storage state, uint _blockNumber, bytes32 _scAddr)\n    public\n    view\n    returns (address[] memory)\n    {\n        // Compile a list of selected workers for the block number and\n        // secret contract.\n        uint paramIndex = getWorkerParamsIndex(state, _blockNumber);\n        uint fullWorkerGroupSize = state.workersParams[paramIndex].workers.length;\n        uint workerGroupSize = fullWorkerGroupSize < state.workerGroupSize ? fullWorkerGroupSize : state.workerGroupSize;\n\n        address[] memory selectedWorkers = new address[](workerGroupSize);\n        uint nonce = 0;\n        for (uint it = 0; it < workerGroupSize; it++) {\n            do {\n                address worker = selectWeightedRandomWorker(state, paramIndex, _scAddr, nonce);\n                bool dup = false;\n                for (uint id = 0; id < selectedWorkers.length; id++) {\n                    if (worker == selectedWorkers[id]) {\n                        dup = true;\n                        break;\n                    }\n                }\n                if (dup == false) {\n                    selectedWorkers[it] = worker;\n                }\n                nonce++;\n            }\n            while (selectedWorkers[it] == address(0));\n        }\n        return selectedWorkers;\n    }\n\n    function getLatestWorkerLogImpl(EnigmaCommon.Worker memory worker, uint _blockNumber)\n    public\n    pure\n    returns (EnigmaCommon.WorkerLog memory) {\n        EnigmaCommon.WorkerLog memory workerLog;\n        for (uint i = worker.workerLogs.length; i > 0; i--) {\n            if (worker.workerLogs[i - 1].blockNumber < _blockNumber) {\n                workerLog = worker.workerLogs[i - 1];\n                break;\n            }\n        }\n        return workerLog;\n    }\n}\n",
  "sourcePath": "/root/enigma-contract/contracts/impl/WorkersImplSimulation.sol",
  "compiler": {
    "name": "solc",
    "version": "0.5.8+commit.23d335f2.Emscripten.clang"
  },
  "schemaVersion": "3.0.11",
  "updatedAt": "2019-08-13T03:51:06.834Z",
  "devdoc": {
    "author": "Enigma * Library that maintains functionality associated with workers",
    "methods": {}
  },
  "userdoc": {
    "methods": {}
  }
}